:100000000C9434000C9451000C9451000C94510049
:100010000C9451000C9451000C9451000C9451001C
:100020000C9451000C9451000C9451000C9451000C
:100030000C9451000C9451000C9453000C945100FA
:100040000C9451000C9451000C9451000C945100EC
:100050000C9451000C9451000C9451000C945100DC
:100060000C94C8000C94510011241FBECFEFD8E0AF
:10007000DEBFCDBF11E0A0E0B1E0E0E2F5E002C0FC
:1000800005900D92A230B107D9F711E0A2E0B1E0DE
:1000900001C01D92A231B107E1F70E94E2010C9468
:1000A0008E020C9400001F920F920FB60F92112433
:1000B0008F9381E0809303018F910F900FBE0F907B
:1000C0001F9018958BB190E489278BB90895CF9331
:1000D000C82F64E08EE091E00E9485008C2FCF91C4
:1000E00008958093BA008FEF8093BB0084E08093E3
:1000F000BC0008958091BC00817008958091BC007F
:1001000080FDFCCF8091000108952091BC0020FD6E
:10011000FCCF60930601FC0187E091E0DC012A2F0F
:10012000281B261718F421912D93F9CF1092040162
:1001300088EF8093000185EC8093BC000895809146
:10014000BC0080FDFCCF1092040188EF8093000179
:1001500085EC8093BC0008952091BC0020FDFCCF6D
:100160002091040120FF10C027E031E0FC01D901FB
:100170008A2F821B861718F48D918193F9CF809175
:1001800004018D7F809304018091040181700895A2
:100190001F920F920FB60F9211248F939F93EF939C
:1001A000FF938091B9008039E1F138F4803761F133
:1001B0008038B9F1803669F147C0883A51F020F4AF
:1001C000803A09F445C040C0883B29F0803C81F06A
:1001D0003BC010920501E091050181E08E0F8093F4
:1001E0000501F0E0E95FFE4F80818093BB002AC0EB
:1001F0009091050180910601981326C08091040119
:1002000081608093040124C0809104018460809304
:100210000401809104018260809304011092050121
:1002200011C0E091050181E08E0F8093050180915E
:10023000BB00F0E0E95FFE4F8083809104018160A4
:100240008093040185EC05C08091B9008093000182
:1002500084E08093BC00FF91EF919F918F910F906C
:100260000FBE0F901F90189584B1837C84B984B120
:100270008C6284B985E58CBD81E08DBD08951CBC80
:10028000089530E120E080FD2F5F969587953150ED
:10029000D1F7822F817008956FEF7FE30E9466028D
:1002A00090930C0180930B01089580910B01909124
:1002B0000C01089580910D0108958EBD0DB407FEC7
:1002C000FDCF8EB50895CF93C82F2A98892F0E940D
:1002D0005D018C2F0E945D012A9A2A988FEF0E945F
:1002E0005D01C82F8FEF0E945D012A9A2C2F30E00C
:1002F000322F2227282BC9019F73CF9108958FEFAA
:100300009FE30C9463010E947F0120910B013091C7
:100310000C01821B930B811520E2920714F08F5F72
:100320009F4308958DEF9FE30C9463010E94920117
:10033000089581E090E00C946301EF92FF920F9397
:100340001F93CF93DF937C018B010E944101C82F43
:10035000D0E0DD27C695D795CC27CE29DF292A986E
:100360008D2F0E945D018C2F0E945D012A9AC80189
:100370000E944101C82FD0E0DD27C695D795CC2734
:10038000C02BD12B2A988D2F0E945D018C2F0E94AB
:100390005D012A9A2A988FEF0E945D01C82F8FEF86
:1003A0000E945D012A9AC1952C2F30E0322F22271E
:1003B000282BC9019F73DF91CF911F910F91FF905F
:1003C000EF9008958AB1837F8AB9569A89B199B11D
:1003D00084709870892B8061880F0E9471000E9440
:1003E000340184B5826084BD87EC87BD82E0809350
:1003F0006E0085B5826085BD789410920E011092D2
:100400000F01109210011092110164E08EE091E052
:100410000E94850000E010E0E12CF12CC0E0D0E06B
:10042000809103018823E1F38091020191E0980F0C
:10043000909302018530B0F0109203010E947F0179
:100440009C012C1B3D0B220F331F220F331F3595B0
:10045000279535952795E20EF31E0F5F1F4F1092DB
:100460000201EC010E947A008111DACF809104012F
:1004700080FF27C00E947A008111D2CF0E946200C3
:10048000C701B8010E947A029B01CB01AA2797FD00
:10049000A095BA2FB0930E01AD01772757FD709547
:1004A000672F40930F01909310012093110164E096
:1004B0008EE091E00E94850000E010E0E12CF12C3C
:1004C000AFCF0E947E000E946700AACFAA1BBB1B71
:1004D00051E107C0AA1FBB1FA617B70710F0A61B44
:1004E000B70B881F991F5A95A9F780959095BC0165
:1004F000CD01089597FB072E16F4009407D077FDE1
:1005000009D00E94660207FC05D03EF490958195C3
:100510009F4F0895709561957F4F0895F894FFCF90
:02052000F800E1
:00000001FF
