:100000000EC01DC032C01BC067C019C018C017C0C9
:1000100016C015C014C013C012C011C010C01124E6
:100020001FBECFE5D1E0DEBFCDBF10E0A0E6B0E05F
:1000300001C01D92A636B107E1F772D0A7C0E0CF8C
:100040001FBC85E080BF8FEF8DBD80E48CBD84E058
:1000500088BF89BF109263001092620081E090E037
:10006000909361008093600008951F920F920FB6E5
:100070000F9211242F933F934F935F936F937F932E
:100080008F939F93AF93BF93EF93FF93B49B13C052
:100090008091600090916100892B09F4D1DF2FEFEE
:1000A00089EF90E0215080409040E1F700C00000CF
:1000B0008AB780628ABFFF91EF91BF91AF919F9104
:1000C0008F917F916F915F914F913F912F910F9001
:1000D0000FBE0F901F9018951F920F920FB60F92A0
:1000E00011248F939F9380916200909163000196F9
:1000F000909363008093620080916400882321F0D4
:10010000809165008F5F03C080916500815080936E
:1001100065009F918F910F900FBE0F901F901895C3
:1001200088E087BBC39A1092610010926000109221
:1001300063001092620081E0809364001092650079
:10014000BA9AC29A8BB780628BBF80E185BB7894E4
:100150008091600090916100892BD1F380916500BE
:100160008F3F21F080916500811107C0909164005C
:1001700081E0911180E0809364009FB580916500DB
:10018000891710F4C29AE4CFC298E2CFF894FFCF57
:00000001FF
