:020000040800F2
:1000000000A00020E1E90008F9BE0008FBBE0008DE
:10001000FDBE0008FFBE000801BF00080000000090
:1000200000000000000000000000000003BF000806
:1000300005BF00080000000007BF000809BF000856
:1000400031EA000831EA000831EA000831EA000824
:1000500031EA000831EA000817BF00081DBF000898
:1000600031EA000831EA000831EA000831EA000804
:1000700031EA000831EA000831EA000831EA0008F4
:1000800031EA000831EA000831EA000831EA0008E4
:1000900023BF000831EA000831EA000831EA00080D
:1000A00031EA000831EA000831EA000831EA0008C4
:1000B00031EA000831EA000831EA000831EA0008B4
:1000C00031EA000831EA000831EA000831EA0008A4
:1000D00031EA000831EA000831EA000831EA000894
:1000E00031EA000831EA000831EA000800000000A7
:1000F0000000000000000000000000000000000000
:1001000000000000000000000000000031EA0008CC
:1001100031EA000831EA000831EA00080000000076
:1001200031EA000831EA000831EA000831EA000843
:1001300031EA00080000000000000000000000009C
:1001400031EA000831EA0008000000000000000069
:10015000000000000000000000000000000000009F
:10016000000000000000000031EA000831EA000849
:1001700031EA00080000000000000000000000005C
:080180000000000031EA000854
:1001900010B5054C237833B9044B13B10448AFF3C1
:1001A00000800123237010BD180300200000000010
:1001B000280C0108084B10B51BB108490848AFF3DB
:1001C00000800848036803B910BD074B002BFBD023
:1001D000BDE81040184700BF000000001C030020CD
:1001E000280C01081403002000000000154B002B10
:1001F00008BF134B9D46A3F5803A00218B460F465E
:100200001348144A121A0EF08AFC0F4B002B00D030
:1002100098470E4B002B00D0984700200021040087
:100220000D000D48002802D00C48AFF300800EF0FE
:1002300035FC200029000EF0FDFB0EF01BFC00BF7A
:1002400000000800000000000000000000000000A6
:1002500018030020501B00200000000000000000D8
:10026000741001080000002014030020180300206F
:10027000501B0020124B1A6842F001021A605968A4
:10028000104A0A405A601A6822F0847222F48032BE
:100290001A601A6822F480221A605A6822F4FE0258
:1002A0005A60DA6A22F00F02DA62196B064A0A40D3
:1002B0001A6300229A60054B4FF000629A60704703
:1002C000001002400CC07FF8CCFC00FF00ED00E005
:1002D000154A1649536803F00C03042B10B503D0DC
:1002E000082B03D0124B14E0124B12E053685068F5
:1002F000C00349BFD06A10480E4C00F00F00C3F392
:10030000834348BF013003F1020348BFB4FBF0F060
:1003100043430B605368094AC3F30313D25C0B6871
:10032000D3400B6010BD00BF00100240040000204D
:1003300000127A000024F40000093D00480C010876
:100340007047704710B5074B4FF0FF3200241A6119
:100350001C61DA60DC609A629C62FFF7F2FF204663
:1003600010BD00BF0010024010B5084B04461868CD
:100370004FF47A73B0FBF3F002F024F90022214627
:100380004FF0FF3002F0BEF8002010BD0400002046
:10039000074A08B5136843F010031360032002F006
:1003A0009FF80020FFF7E0FF0BF068FD002008BD7C
:1003B00000200240024A136801331360704700BFF7
:1003C00048030020014B1868704700BF4803002015
:1003D00013B50190FFF7F6FF0446FFF7F3FF019B0B
:1003E000001B9842F9D302B010BD034A136823F0F2
:1003F00002031360704700BF10E000E0024A136878
:1004000043F002031360704710E000E000487047BB
:1004100000000301014B1868000C7047002004E045
:10042000024B1868C0F30B00704700BF002004E0C7
:10043000024A536843F0010353607047002004E010
:10044000024A536823F0010353607047002004E020
:10045000024A536843F0020353607047002004E0EF
:10046000024A536823F0020353607047002004E0FF
:10047000024A536843F0040353607047002004E0CD
:10048000024A536823F0040353607047002004E0DD
:100490000120704701207047704770470120704766
:1004A00001207047012070470120704701207047EC
:1004B0000120704701207047012070470368186CC5
:1004C000704770477047704770477047012070470A
:1004D00001207047406C7047806C704738B50368E6
:1004E0000446986800F00300012801D0002038BDC0
:1004F0001A68D207FAD59A6802F00D02012A09D1CA
:100500009A6842F002029A6003221A60FFF75AFFCB
:10051000054608E0636C43F010036364A36C43F08A
:100520000103A36438BD23689B68DB07DED5FFF7B2
:1005300049FF401B0228F6D9636C43F01003636443
:10054000A36C43F00103A364012038BD03689A68DB
:1005500012F00C0F70B5044601D1002070BDDA68AE
:10056000900110D5E269012A0DD1A269012A0AD1B0
:10057000214A1968490602D4013AFAD131E04022F1
:100580001A600C2101E060290BD09A68560706D545
:100590009A6895075EBF9A6842F010029A600C292B
:1005A00010D09A68100706D59A6892075EBF9A68BD
:1005B00042F020029A60602902D06C2904D001E048
:1005C000082502E0042500E00C25FFF7FBFE0646A7
:1005D00023689B681D42C0D0FFF7F4FE801B0B28E8
:1005E000F6D9636C43F010036364A36C43F001031A
:1005F000A364012070BD00BF0194090038B50368F1
:100600009A6802F00302012A044604D11A68D2074C
:1006100001D5002038BD99680E4A0A407AB99A6817
:1006200042F001029A60FFF7CDFE054623681B6881
:10063000DB07EED4FFF7C6FE401B0228F6D9636C39
:1006400043F010036364A36C43F00103A36401202F
:1006500038BD00BF3F000080406A436C43F0400358
:100660004364836C43F004038364FFF72EBF406A46
:10067000FFF729BF436A5A6C12F0500F18D15A6C19
:1006800042F400725A641A68D26812F4406F0CD1B6
:10069000DA6952B95A6C22F480725A645A6CD204E4
:1006A0005EBF5A6C42F001025A641846FFF70ABF57
:1006B000DB6B1B6B184730B597B0002300930446E3
:1006C000002800F0CF80426CD20647D4436C0BB1B7
:1006D000002331E083640365C36480F84030FFF792
:1006E000DBFE23689B68DB00F2D42046FFF7F6FEB2
:1006F000626CD50603461FD4F0B9636C23F48853AB
:1007000023F0020343F00203636423689A6822F033
:1007100040529A609A6842F080529A60574B584A09
:100720001B68B3FBF2F20A2353430093009B002B98
:10073000CED0009B013BF8E722689168C90002D542
:10074000926892000AD5636C23F0120343F0100301
:100750006364A36C43F00103A3640123626CD506B8
:100760007AD4002B78D123689A68500774D4626CCD
:1007700022F4817242F00202B3F1A04F62640CBF16
:10078000404A4FF0A04201929A6802F00302012A07
:1007900002D11A68D1070AD4019A002A64D091685C
:1007A00001F0030101295FD11268D2075CD5A26B69
:1007B000E568A168E069012A41EA05010CBF002251
:1007C0004FF4805241EA40310A43616A012911D154
:1007D00030B9A16A013942EA414242F4803209E06B
:1007E000616C21F0220141F020016164A16C41F0B3
:1007F0000101A164E06A01281EBF216B01430A4385
:10080000996811F00C0F0BD1D968A06921F48041CF
:1008100021F00201D960616B490041EA80310A434D
:10082000D868194901400A43DA602269012A08BFE1
:10083000216A1A6B03BF01F1FF3122F00F020A4354
:1008400022F00F0200201A63A064636C23F00303FC
:1008500043F0010363640FE0636C23F0120343F081
:1008600010036364012007E00848826822F44031E5
:1008700062680A4382609AE717B030BD0400002026
:1008800040420F000001005007C0F0FF000300507D
:1008900030B5044697B0002800F0A180436C43F0C7
:1008A000020343646C21FFF751FE0546002840F027
:1008B00091802268D36843F40013D3602046FFF789
:1008C0000DFE01230546002840F08B8063642368F9
:1008D0005A6822F4FF6222F007025A6040F2FF7267
:1008E0001A609A6822F0E0429A609A6842F00052D8
:1008F0009A60D968404A0A40DA6059693F4A0A401A
:100900005A619A6902F078429A611A6A02F0F022FA
:100910001A625A6A02F0FF225A629A6A02F0FF22B1
:100920009A62196B364A0A401A63596B354A0A4073
:100930005A63996B334A0A409A63DA6B22F4FB627A
:1009400022F00702DA63196E2F4A0A401A66596EBE
:100950002D4A0A405A66996E2B4A0A409A66D96E09
:10096000294A0A40DA66D3F8A020D20CD204C3F890
:10097000A020D3F8A420D20CD204C3F8A420D3F82A
:10098000B020D20CD204C3F8B020D3F8B420B3F115
:10099000A04F22F07F12C3F8B4200CBF1B4A4FF0C7
:1009A000A04201929A6802F00302012A02D11B6858
:1009B000DA0709D4019BB3B19A6802F00302012A55
:1009C00011D11B68DB070ED52046FFF766FD00231B
:1009D000A3646364002384F84030284609E00120C2
:1009E00007E01D46F6E70A4A0A4B91680B40936000
:1009F000EAE717B030BD00BF04800080070000C0E8
:100A0000300882E0200882E000F0FF03000100507F
:100A100000030050E0103CFE38B503689B6813F0FB
:100A20000405044659D190F84030012B55D00123DC
:100A300080F84030FFF7E2FD00284BD1636C23F4CF
:100A4000706323F0010343F480736364244B9B6859
:100A5000626C13F01F0F236802D0B3F1A04F04D1D2
:100A600022F480126264DA6808E042F48012626460
:100A70001C4A93420AD14FF0A042D268900141BF74
:100A8000626C22F4405242F480526264626C12F44E
:100A900080521CBFA26C22F00602A26400201C221D
:100AA00084F840001A600E4A9168C9060CD091681B
:100AB00001F01F01052907D0926802F01F02092AE0
:100AC00002D0B3F1A04F09D19A6842F004029A60B3
:100AD000002038BD84F8405038BD022038BD00BF2A
:100AE000000300500001005090F84030012B10B579
:100AF000044616D0012380F840306C21FFF726FD14
:100B000058B92046FFF7EAFC38B9636C23F48853E0
:100B100023F0010343F001036364002384F84030B1
:100B200010BD022010BD2DE9F0414669082E044693
:100B30000F461CD0374A936813F01F0308D1026890
:100B4000D268D10712D5426C42F02002426408E01C
:100B5000936813F4404F09D0436C43F0200343647F
:100B6000002384F840300120BDE8F0810C26294B99
:100B70009B6813F01F0F236804D0B3F1A04F18BF78
:100B80004FF0A043DD68FFF71DFC804623681A681C
:100B9000164213D17A1CFAD04FB9636C43F00403A8
:100BA0006364002384F840300320BDE8F081FFF740
:100BB00009FCC8EB00008742E8D2EEE7626C42F421
:100BC00000726264DA6812F4406F1BD1A80419D471
:100BD0001A68110716D59A6812F0040F626C0AD1D0
:100BE00022F480726264626CD2040BD4626C42F0B4
:100BF0000102626406E042F020026264A26C42F0EC
:100C00000102A26415F480400CBF1E600020BDE804
:100C1000F08100BF00030050F8B504460D461646AB
:100C2000FFF7D0FB074623681A6835EA020211D0A5
:100C3000721CF9D046B9636C43F00403636400236B
:100C400084F840300320F8BDFFF7BCFBC01B864290
:100C5000E9D2F0E7B5F5807F15D005D8802D1CD1FD
:100C6000626C42F4803215E0B5F5007F0FD0B5F527
:100C7000806F12D1626C42F480426264A26C42F0D6
:100C80000802A26407E0626C42F4003202E0626C87
:100C900042F4802262641D600CE0A26B012A07D13D
:100CA000626C42F480626264A26C42F00202A2644E
:100CB00010221A600020F8BD38B503689B6813F055
:100CC000040504466DD190F84030012B69D0012312
:100CD00080F84030FFF792FC00285FD1636C23F46A
:100CE000706323F0010343F4807363642F4B9B68AC
:100CF000626C13F01F0F236802D0B3F1A04F04D130
:100D000022F480126264DA6808E042F480126264BD
:100D1000274A93420AD14FF0A042D268900141BFC6
:100D2000626C22F4405242F480526264626C12F4AB
:100D300080521CBFA26C22F00602A264002284F83A
:100D400040201C221A606269082A5A6803BF22F0F8
:100D500004025A605A6842F00C0208BF42F00802CE
:100D60005A60A26B012A02BF5A6822F010025A6030
:100D70000E4A9168C9060CD0916801F01F0105293F
:100D800007D0926802F01F02092A02D0B3F1A04FE7
:100D900009D19A6842F004029A6004E084F8405055
:100DA00038BD022038BD002038BD00BF0003005010
:100DB0000001005090F84030012B10B504461BD0C4
:100DC000012380F840306C21FFF7C0FB80B9226816
:100DD000536823F01C0353602046FFF77FFB38B9AC
:100DE000636C23F4885323F0010343F0010363642D
:100DF000002384F8403010BD022010BD2DE9F843D7
:100E000003689B6813F0040304460F4690466FD1B5
:100E100090F84020012A6BD0374EB268012512F0BD
:100E20001F0980F840505ED1FFF7E8FB002856D13B
:100E3000606C20F4706020F0010040F48070606409
:100E4000B368266813F01F0F636C02D0B6F1A04F91
:100E50000CD123F480136364F3689A0117D5636C93
:100E600023F4405343F48053636410E043F480134D
:100E70006364224B9E420AD14FF0A043DB689B0182
:100E800041BF616C21F4405141F480516164636C55
:100E9000E06B13F480531CBFA36C23F00603A36420
:100EA0000025174B84F840508362164BC362164BE3
:100EB00003631C233360736843F010037360F368AB
:100EC00043F00103F3603A46434606F1400101F066
:100ED00068FD2268936843F00403936005E084F89A
:100EE0004090BDE8F88380F840302846BDE8F8839C
:100EF0000220BDE8F88300BF00030050000100504D
:100F0000750600086F0600085906000838B590F805
:100F10004030012B044630D0012380F840306C2152
:100F2000FFF714FB054618BB2268E06BD36823F07B
:100F30000103D36001F062FD054618B1636C43F014
:100F4000400363642268536823F010035360204613
:100F500065B9FFF7C3FA054650B9636C23F48853AB
:100F600023F0010343F00103636401E0FFF7B6FAE5
:100F7000002384F84030284638BD022038BD03687D
:100F8000186C7047F8B590F84030012B04460F46B6
:100F90003AD0012680F84060FFF7A0FA054668BB0A
:100FA000236866649A6822F080429A60B74202BF62
:100FB0009A6842F080429A609A6842F000429A60D1
:100FC000FFF700FA064623689B68002B0FDAFFF74D
:100FD000F9F9801B0A28F6D9636C23F0120343F059
:100FE00010036364002384F840300120F8BD636C73
:100FF00023F0030343F00103636400E0354600235C
:1010000084F840302846F8BD0220F8BD0368D3F8C4
:10101000B40001290CBF000C00F07F00704790F86D
:101020004030012B10B518D0012380F84030036800
:101030009C6804F00304012C02D11C68E4070ED460
:10104000436C43F020034364836C43F001038364E7
:10105000002380F84030184610BD022010BD9C6867
:1010600014F00C0FECD10129D3F8B4100BBF21F40C
:10107000FE0121F07F0141EA02420A43C3F8B42095
:10108000E6E738B503689B6813F0080504464AD1C3
:1010900090F84030012B46D0012380F84030FFF714
:1010A000ADFA00283CD1636C226823F4405323F04E
:1010B000010343F4805363641D4B9B6813F01F0FBF
:1010C000636C02D0B2F1A04F02D123F4801301E08F
:1010D00043F480136364636C13F4807308BFA364E8
:1010E0000020602384F840001360D36813F000737D
:1010F0001CD10F498868C0060CD0886800F01F001A
:10110000062807D0896801F01F01072902D0B2F133
:10111000A04F0AD1936843F008039360002038BDC4
:1011200084F8405038BD022038BD184638BD00BF95
:101130000003005090F84030012B10B504462BD02E
:101140000268D2680123910180F840301BD46021ED
:10115000FFF7FCF9E0B923689B685A070ED4636C6B
:10116000DB050BD42046FFF7B9F988B9636C23F48B
:10117000885323F0010343F0010302E0636C23F47E
:101180008053636404E0426C42F0200242641846DB
:10119000002384F8403010BD022010BD4369082BA5
:1011A000274B9B682DE9F0410CBF4026602613F0C9
:1011B0001F0F04460F46036804D0B3F1A04F18BFB9
:1011C0004FF0A043DD68FFF7FDF8804623681A68FA
:1011D000164213D17A1CFAD04FB9636C43F0040362
:1011E0006364002384F840300320BDE8F081FFF7FA
:1011F000E9F8C8EB00008742E8D2EEE7626C42F4FF
:1012000000526264DA6C12F0C00F07D0A80110D44B
:10121000DA6812F4406F0CD1A9040AD4626C22F48B
:1012200080526264626CD2055EBF626C42F0010261
:10123000626415F480400CBF1E600020BDE8F081A0
:101240000003005038B503689B6813F00805044696
:101250005ED190F84030012B5AD0012380F8403005
:10126000FFF7CCF9002850D1636C23F4405323F0EE
:10127000010343F480536364274B9B68626C13F053
:101280001F0F236802D0B3F1A04F02D122F48012C5
:1012900001E042F480126264626C12F4807208BF52
:1012A000A264002284F8402060221A60DA6890026A
:1012B00042BF5A6842F480625A606269082A5A68DA
:1012C00003BF22F020025A605A6842F0600208BF51
:1012D00042F040025A60D86810F000701AD10E4AED
:1012E0009168C9060CD0916801F01F01062907D04A
:1012F000926802F01F02072A02D0B3F1A04F0AD170
:101300009A6842F008029A6004E084F8405038BDC0
:10131000022038BD002038BD0003005090F8403056
:10132000012B10B504462FD00268D2680123910129
:1013300080F840301FD46021FFF708F900BB236814
:101340005A6822F48C625A609B685A070ED4636C08
:10135000DB050BD42046FFF7C1F888B9636C23F492
:10136000885323F0010343F0010302E0636C23F48C
:101370008053636404E0426C42F0200242641846E9
:10138000002384F8403010BD022010BDF0B590F865
:101390004030012B97B004460E46174601D102207B
:1013A0004FE0012380F8403003689A685207F6D472
:1013B000B3F1A04F04BF03F580730193019A3AB9CA
:1013C000436C80F8402043F020034364012038E060
:1013D000FFF714F9002831D101A8FFF70FF9002811
:1013E0002CD1626C184BE06B1849134043F48073A6
:1013F00022686364D3689B0141BF636C23F440534C
:1014000043F4805363640025114BA56484F8405075
:101410008362104BC362104B03631C231360536839
:1014200043F0100353603B46324601F0BAFA22689B
:10143000936843F004039360284602E0002384F895
:10144000403017B0F0BD00BFFEF0EFFF0C030050BE
:10145000750600086F0600085906000830B590F8B8
:101460004030012B97B0044660D0012380F8403013
:101470006C21FFF76BF80546002852D12368B3F1C1
:10148000A04F04BF03F580730193019A32B9636CD6
:1014900084F8402043F04003636412E0FEF792FFBB
:1014A000054623689B685A070DD5FEF78BFF401B46
:1014B0000B28F6D9636C43F010036364002384F8AF
:1014C0004030012033E0019B9B685B07EDD4E06B6B
:1014D00001F094FA054618B1636C43F0400363646D
:1014E0002268536823F010035360204685B9FEF745
:1014F000F5FF012815D001A8FEF7F0FF012810D054
:10150000636C23F4885323F0010343F0010307E0E5
:10151000FEF7E4FF01A8FEF7E1FF636C43F0100360
:101520006364002384F84030284600E0022017B0AE
:1015300030BD014BD8687047000300500329036891
:1015400009D0042904D0022908D1D3F884007047B7
:10155000D3F88C007047D3F888007047D3F8800028
:10156000704790F84030012B10B5044620D001237D
:1015700080F840300C21FEF7E9FF23689B681A07CA
:101580000ED4636CDB040BD42046FEF7A7FF58B9DA
:10159000636C23F4885323F0010343F0010302E05A
:1015A000636C23F480736364002384F8403010BDBF
:1015B000022010BD90F84030012B10B5044624D015
:1015C000012380F840300C21FEF7C0FF23689A68A1
:1015D000110712D4626CD2040FD45A6822F01C0294
:1015E0005A602046FEF77AFF58B9636C23F488539B
:1015F00023F0010343F0010302E0636C23F48073E2
:101600006364002384F8403010BD022010BD38B55B
:1016100090F84030012B044639D0012380F8403047
:101620000C21FEF793FF23689A681107054625D41D
:10163000626CD20422D4DA68E06B22F00102DA6034
:1016400001F0DCF9054618B1636C43F040036364B4
:101650002268536823F01003536020465DB9FEF7FB
:101660003DFF054670B9636C23F4885323F00103F2
:1016700043F0010305E0FEF731FF03E0636C23F460
:1016800080736364002384F84030284638BD02200C
:1016900038BD30B590F84030012B97B0044668D083
:1016A000012380F840300C21FEF750FF23689A6830
:1016B0000546100754D4626CD10451D4B3F1A04F45
:1016C00004BF03F580730193019A32B9636C84F807
:1016D000402043F04003636412E0FEF773FE0546CA
:1016E00023689B685A070DD5FEF76CFE401B0B283C
:1016F000F6D9636C43F010036364002384F8403030
:10170000012037E0019B9B685B07EDD4E06B01F0A3
:1017100075F9054618B1636C43F0400363642268B1
:10172000536823F010035360204685B9FEF7D6FEB8
:10173000012819D001A8FEF7D1FE012814D0636C4E
:1017400023F4885323F0010343F001030BE0FEF779
:10175000C5FE01A8FEF7C2FE636C43F0100302E071
:10176000636C23F480736364002384F8403028465C
:1017700000E0022017B030BD7047704770477047D7
:1017800003681A68510710B5044602D55A68520713
:1017900005D41A68100749D55A68110746D5626CF6
:1017A000D2065EBF626C42F4007262648F4A916836
:1017B000C8060CD0916801F01F01052907D0926876
:1017C00002F01F02092A02D0B3F1A04F01D1DA685A
:1017D00002E04FF0A042D268D96811F4406F1FD1E7
:1017E00091041DD41A6812071AD59A6850070FD4AD
:1017F0005A6822F00C025A60636C23F480736364AD
:10180000636CD9040CD4636C43F00103636407E098
:10181000636C43F010036364A36C43F00103A3649F
:101820002046FEF74FFE23680C221A6023681A68D0
:10183000920602D55A68900605D41A68510664D5F6
:101840005A68520661D5626C42F400526264674A7B
:101850009168C8060CD0916801F01F01052907D0D6
:10186000926802F01F02092A02D0B3F1A04F01D101
:10187000DA6802E04FF0A042D268D96C11F0C00FD4
:1018800007D091013BD4D96811F4406F37D192044D
:1018900035D41A68500632D5544A9168C9060CD01E
:1018A000916801F01F01062907D0926802F01F021B
:1018B000072A02D0B3F1A04F01D1DA6802E04FF05D
:1018C000A042D26892021AD49A6810070FD45A68BC
:1018D00022F060025A60636C23F480536364636C8B
:1018E000D9050CD4636C43F00103636407E0636CB7
:1018F00043F010036364A36C43F00103A364204628
:10190000FFF73AFF236860221A6023681A681206FC
:101910000CD55B681B0609D5636C43F480336364A4
:101920002046FEF7D1FD236880221A6023681A68DA
:10193000D0050DD55B68D9050AD5636C43F4003337
:1019400063642046FFF71AFF23684FF480721A6021
:1019500023681A6892050DD55B6898050AD5636CF3
:1019600043F4802363642046FFF709FF23684FF4A4
:1019700000721A6023681A68D10614D55A68D20614
:1019800011D5A26B012A24D0184A9168C80603D148
:10199000DB6813F0010F02E0936813F4404F18D195
:1019A000236810221A6023681A6851051DD55A68E9
:1019B00052051AD5626C42F480426264A26C42F015
:1019C0000802A2644FF480621A602046FFF7D5FE39
:1019D00010BD636C43F480636364A36C43F0020343
:1019E000A3642046FEF771FDDAE710BD0003005046
:1019F000F0B597B00023009390F84030012B00F031
:101A0000E38003689C680122660780F8402000F1AB
:101A1000D1804D680C68042D4FF006020AD86A4345
:101A20001E6B1F25954026EA050504FA02F22A439B
:101A30001A6326E0092D0BD86A435E6B1E3A1F25F8
:101A4000954026EA050504FA02F22A435A6318E093
:101A50000E2D0BD86A439E6B3C3A1F25954026EA13
:101A6000050504FA02F22A439A630AE06A43DE6B30
:101A70005A3A1F25954026EA050504FA02F22A4340
:101A8000DA639A6812F00C0F78D1092C4FEA4402FD
:101A90008E680CD91519A5F11E029F69072595407E
:101AA00027EA050506FA02F22A439A6109E05F690E
:101AB00022440725954027EA050506FA02F22A4343
:101AC0005A61DA684F69C2F3C102520097400A694D
:101AD000013A4FEA846E032A2CD8DFE802F0020DA7
:101AE00018221A6E784E164046EA0E0646F0004658
:101AF00046EA07021A6641E05A6E734D154045EA00
:101B00000E0545F0004545EA07025A6636E09D6E2F
:101B10006D4A2A4042EA0E0242F000423A439A6677
:101B20002CE0DD6E684A2A4042EA0E0242F0004292
:101B30003A4322E01A6E02F0F842724502BF1A6E72
:101B400022F000421A665A6E02F0F842964502BF31
:101B50005A6E22F000425A669A6E02F0F84296459A
:101B600002BF9A6E22F000429A66DA6E02F0F842E4
:101B7000964503D1DA6E22F00042DA669A6802F0E6
:101B80000302012A02D11A68D50711D4CA68012AB2
:101B90001CD0D3F8B0100122A24021EA0202C3F8FF
:101BA000B020102C36D1494A926812F4000F3FD071
:101BB000002304E0436C43F02003436413460022F7
:101BC00080F8402018467DE002207BE0D3F8B0503A
:101BD000A2402A43092CC3F8B0208D680DD904EB2C
:101BE0004401A1F11B029E690721914026EA0101EF
:101BF00005FA02F20A439A61D3E7621C5E6902EBBE
:101C000042020721914026EA010105FA02F20A4345
:101C10005A61C6E7112C04D12C4A926812F0807FD9
:101C2000C5E7122CC4D1294A926812F4800FBEE78E
:101C3000B3F1A04F0CBF264A4FF0A04201929A6820
:101C400002F00302012A02D11A68D10709D4019ACD
:101C50006AB1916801F00301012908D11268D20725
:101C600005D5436C43F0200343640123A7E7102C00
:101C700015D1B3F1A04F9BD1144A936843F40003EC
:101C80009360144B144A1B68B3FBF2F20A235343CC
:101C90000093009B002B8BD0009B013BF8E7112C9D
:101CA00007D1B3F1A04F83D1084A936843F0807302
:101CB00006E0122C7FF47CAF044A936843F480035F
:101CC000936075E717B0F0BD00F0FF83000300508C
:101CD000000100500400002040420F00F0B597B012
:101CE0000023009390F84030012B00F01A81026924
:101CF0004C68012380F84030036812B18D69012DD2
:101D000018D1012C10D18D6A0A68012D1EBFCC6A32
:101D10002C4344EA0222DD6C9C4C08BF12022C408A
:101D20001443DC64C26429E0426C42F02002426445
:101D3000012224E0026D5AB9C2648A6A0565012A4B
:101D400018BFCE6A05F1FF351CBF16433543C56485
:101D500006226243951C1F24C26CAC4022EA040494
:101D60000A68AA401443026DC464013A02652AB9A4
:101D7000DE6C864D35402C43DC6400E000229C681C
:101D8000270719D40D6A4C6ACE6945B9DD6825F478
:101D9000401545EA445444EA0654DC600CE0DD6832
:101DA00025F4401545EA4455012EDD6001BF426C23
:101DB00042F02002426432469C6814F00C0F40F05E
:101DC00090808C6A0D6A012CDC6824F0007403D1C9
:101DD00044EA4564DC6007E0012DDC6001BF426C31
:101DE00042F0200242642A460E688F68092E4FEAAC
:101DF00046040DD9A519A5F11E04D3F818E007254E
:101E0000A5402EEA050507FA04F42C439C610BE07B
:101E10005D6934444FF0070E0EFA04FE25EA0E0504
:101E200007FA04F42C435C61DC684F69C4F3C10415
:101E30006400A7400C69013C4FEA866E032C2CD845
:101E4000DFE804F0020D18221C6E514E264046EACF
:101E50000E0646F0004646EA07041C6641E05C6E4A
:101E60004B4D254045EA0E0545F0004545EA07047F
:101E70005C6636E09D6E464C2C4044EA0E0444F00D
:101E800000443C439C662CE0DD6E414C2C4044EA0F
:101E90000E0444F000443C4322E01C6E04F0F8447D
:101EA000744502BF1C6E24F000441C665C6E04F096
:101EB000F844A64502BF5C6E24F000445C669C6E4C
:101EC00004F0F844A64502BF9C6E24F000449C66D2
:101ED000DC6E04F0F844A64503D1DC6E24F0004427
:101EE000DC669C6804F00304012C02D11C68E60740
:101EF00012D4CD680C68012D15D0D3F8B050012153
:101F0000A14025EA0101C3F8B010102C2FD12149BE
:101F1000896811F4000F3FD0002380F8403010464C
:101F200084E0022082E0D3F8B060A5403543092C5C
:101F3000C3F8B0508E680DD904EB4405A5F11B0120
:101F40009F6907258D4027EA050506FA01F1294317
:101F50009961DAE7611C5F6901EB410107258D405A
:101F600027EA050506FA01F129435961CDE7112C4D
:101F700004D10849896811F0807FCCE7122CCBD1BD
:101F80000449896811F4800FC5E700BF002008826A
:101F900000F0FF8300030050B3F1A04F0CBF2449B1
:101FA0004FF0A0410191996801F00301012902D18C
:101FB0001968CD0709D4019969B18D6805F0030549
:101FC000012D08D10968C90705D5436C43F02003EA
:101FD00043640122A0E7102C15D1B3F1A04F9BD18F
:101FE00014498B6843F400038B60134B13491B683F
:101FF000B3FBF1F10A234B430093009B002B8BD0E2
:10200000009B013BF8E7112C07D1B3F1A04F83D11E
:1020100008498B6843F0807306E0122C7FF47CAF94
:1020200004498B6843F480038B6075E717B0F0BDFB
:1020300000010050000300500400002040420F0047
:1020400090F84030012BF0B500F0A28003684F6893
:102050009C68012214F00C0C80F8402040F08E8027
:10206000D1F800E00C69CE68DD6896454A6924D154
:10207000D1F808E025F0FB4121F4800141EA8E61AE
:102080003943D960DD68DF68196AC7F3C1077F008B
:1020900001F0F021BA400A43C5F3C10149008C4068
:1020A00042EA044480221C621A605A68012E0CBF66
:1020B00042F0800222F080025AE005F01805182D47
:1020C0001FBFDD68C5F3C1056D00C5F1040518BF6C
:1020D000EC40DD6805F0180508BFA400182D1FBFEF
:1020E000DD68C5F3C1056D00C5F1040514BFEA4004
:1020F0009200BEF1020F1BD16FB15D6A896805F0D5
:10210000FF2545EA044422435A62D3F8A040012245
:102110008A40224307E05A6A02F0FF225A62D3F84B
:10212000A020D20CD204C3F8A0204FF480721AE091
:102130006FB19D6A896805F0FF2545EA0444224392
:102140009A62D3F8A44001228A40224307E09A6AA7
:1021500002F0FF229A62D3F8A420D20CD204C3F872
:10216000A4204FF400721A60012E596803D10A436B
:102170005A60002307E021EA0202F9E7436C43F0CA
:10218000200343641346002280F840201846F0BD27
:102190000220F0BDF0B590F84030012B97B03DD053
:1021A00002680123B2F1A04F80F840300CBF304BE1
:1021B0004FF0A043019393685F0725D4019CA36867
:1021C0005E0721D40F682B4E8FB1B568436B25F4A1
:1021D000604545EA43354B681D43B560936803F09D
:1021E0000303012B1CD11368DD0719D53BE0B3684D
:1021F00023F46043B360936803F00303012B23D1FE
:102200001368DA072FD41FE0436C43F020034364C4
:102210000123002280F84020184626E0022024E016
:10222000A26802F00302012A02D12368DC071AD453
:10223000104C8B68A26847EA030122F4716323F013
:102240000F030B43A3600EE0A36803F00303012B0D
:1022500002D12368DB0706D4064A936823F471632E
:1022600023F00F0393600023D3E717B0F0BD00BF46
:102270000001005000030050F0B597080B4601EB39
:10228000870E734504680CD05D781E782D0445EAEE
:102290000665DE7835439E7845EA062525600433D9
:1022A000EFE712F003020DD0012A11F8271001D137
:1022B000217007E0022A5A7842EA012222801CBFDC
:1022C0009B78237003681868F0BDF0B500235708A9
:1022D0000C46BB4204F10404056808D034F804EC51
:1022E00034F8026C46EA0E462E600133F1E7D2075D
:1022F00044BF31F823302B802868F0BD704710B5FB
:10230000044608B9012010BD437F03F0FF0213B952
:102310000277FFF7F3FF0223637723793BB9236842
:10232000124A5A619A6822F018029A6006E0E2683E
:10233000A168204600F092F80028E3D16279236872
:1023400012B94FF0FF3200E022691A619A6822F058
:10235000600162690A439A609A6822F08001A2696A
:102360000A439A6001236377002010BDB71DC104A2
:10237000704738B5054690B1447FE4B2022C10D0C6
:102380000223437703689A6842F001029A600024AE
:102390001A791C71FFF7ECFF6C772C7701E00120B4
:1023A00038BD204638BDF8B5037F012B04464FF0F9
:1023B000020320D04377036A0127022B077711D04D
:1023C000032B04D0BB4210D1FFF756FF0EE001EB08
:1023D0008206B142236803D051F8042B1A60F8E753
:1023E000186803E0FFF771FF00E000200123637726
:1023F00000232377F8BD1846F8BDF8B5037F012BFD
:1024000004464FF0020324D043770368012707777F
:102410009F6847F001079F60076A022F10D0032FC3
:1024200004D0012F0FD1FFF727FF0DE001EB82064B
:10243000B14203D051F8042B1A60F9E7186803E0A1
:10244000FFF743FF00E00020012363770023237799
:10245000F8BD1846F8BD407F704700BF30B51F2358
:10246000012404FA03F50D4203D113F1FF33F8D22E
:1024700014E0102A07D0182A03D0082A05D10F2B00
:1024800002E0062B00E0072B0AD80368596199681F
:1024900021F018010A439A60002030BD102A01D1B2
:1024A000012030BD182AFBD0082AEED1F8E70268D7
:1024B00002234377936823F060031943012391605B
:1024C000437700207047026802234377936823F024
:1024D0008003194301239160437700207047000077
:1024E000074AD36823F4E0631B041B0C43F0BF636B
:1024F000000243F4003300F4E0600343D36070470C
:1025000000ED00E0174BDB68C3F3022330B5C3F1E5
:1025100007041D1D042C28BF0424062D4FF00105BF
:1025200005FA04F404F1FF348CBF033B00230C4094
:102530009C4005FA03F3013B1A40002842EA0402DA
:102540004FEA0212AFBF00F1604000F00F00064BEF
:10255000D2B2A5BF00F56140D2B21A5480F8002370
:1025600030BD00BF00ED00E014ED00E042090123A2
:1025700000F01F0003FA00F0014B43F822007047FF
:1025800000E100E04309012200F01F0002FA00F020
:102590002033024A42F82300704700BF00E100E008
:1025A000BFF34F8F0549064BCA6802F4E06213433C
:1025B000CB60BFF34F8F00BFFDE700BF00ED00E031
:1025C0000400FA050138B0F1807F0AD2064B074AB1
:1025D0005860F02182F823100020072298601A60CA
:1025E00070470120704700BF10E000E000ED00E000
:1025F000114943788B600378DBB14368CB60C37AC1
:10260000027B1B0643EA027302781343827A43EA91
:10261000C243427B43EA8243827B43EA4243C27B1A
:1026200043EA0243427A43EA0223027A43EA42033C
:1026300000E0CB600B61704790ED00E0024BD86882
:10264000C0F30220704700BF00ED00E070B5002825
:10265000AEBF00F1604000F00F00114C01F0070127
:10266000AABF00F56140205C90F80003C1F10704A7
:102670000D1D042C28BF0424062D4FEA10108CBF1A
:1026800003390021012520FA01F605FA04F405FAC0
:1026900001F1013C0139344001401460196070BD02
:1026A00014ED00E04309012200F01F0002FA00F0DF
:1026B0004033024A42F82300704700BF00E100E0C7
:1026C0004309054A403300F01F0052F8233023FA33
:1026D00000F000F00100704700E100E04309012232
:1026E00000F01F0002FA00F06033024A42F82300B3
:1026F000704700BF00E100E04309054A803300F065
:102700001F0052F8233023FA00F000F00100704758
:1027100000E100E0044B1A6804280CBF42F00402F8
:1027200022F004021A60704710E000E0704708B51C
:10273000FFF7FCFF08BD00BF10B500B390F82130D3
:102740000BB980F820308268416804681143C26880
:10275000236811430269114342691143826911439D
:10276000C26923F47F530A4323F0300313432360E9
:1027700001220023836380F82120184610BD012028
:1027800010BD30B5002800F0DA8003686D491A6882
:1027900022F001021A608B424FF000021A605A6068
:1027A0009A60DA601CD9684CA3420DD0674A934204
:1027B0000CD0143293420BD0143293420CBF4FF41E
:1027C00000524FF4003205E0022203E0202201E033
:1027D0004FF400725E49A3424A602FD108223FE0C5
:1027E0005C4CA34215D05C4A934214D014329342FD
:1027F00013D01432934213D01432934213D01432B4
:10280000934213D08B420CBF4FF000724FF4003252
:102810000EE002220CE020220AE04FF4007207E0F2
:102820004FF4005204E04FF4003201E04FF4001284
:102830004A4DA3426A6018D1082239E0434A9342C4
:102840000AD01432934209D0143293420CBF4FF491
:1028500000424FF4002203E0802201E04FF40062C6
:10286000A3424A602AD104233AE03B4A934212D061
:102870001432934211D01432934211D01432934245
:1028800011D01432934211D08B420CBF4FF0006232
:102890004FF400220CE080220AE04FF4006207E0CF
:1028A0004FF4004204E04FF4002201E04FF4000234
:1028B0002A4DA3426A6015D1042336E0234A93428D
:1028C0000AD01432934209D0143293420CBF4FF411
:1028D00080434FF4802303E0402301E04FF4806302
:1028E0004B6024E01C4A934212D01432934211D020
:1028F0001432934211D01432934211D014329342C5
:1029000011D08B4214BF4FF480234FF080630CE052
:1029100040230AE04FF4806307E04FF4804304E073
:102920004FF4802301E04FF480030C4A53600023EE
:10293000836380F8213080F82030184630BD0120B4
:1029400030BD00BF80000240080402401C04024069
:1029500000040240080002401C0002400000024047
:1029600030B590F82040012C4FF0020417D080F8C9
:1029700021400468012580F82050256825F00105D4
:10298000256063604368102B0BBFA260A160E1600B
:10299000E260236843F001032360002030BD20463D
:1029A00030BD30B590F82040012C4FF0020423D008
:1029B00080F821400468012580F82050256825F022
:1029C0000105256063604368102B0BBFA260A16006
:1029D000E160E260236843F002032360236843F070
:1029E00004032360236843F008032360236843F053
:1029F00001032360002030BD204630BD026838B599
:102A0000136823F0010313600446FDF7DBFC054661
:102A10002368186810F0010010D0FDF7D3FC401BAC
:102A2000B0F57A7FF4D9A36B43F02003A3630320AE
:102A3000002384F8210084F8203038BD012384F875
:102A4000213084F8200038BD90F82130022B10B5D9
:102A500003D004238363012010BD03681A6822F0A9
:102A60000E021A601A6822F001021A60294A934283
:102A700019D902F5627293420DD0143293420CD0F0
:102A8000143293420BD0143293420CBF4FF4805354
:102A90004FF4803305E0012303E0102301E04FF4FD
:102AA00080731D4A28E01D498B4215D014318B429A
:102AB00014D014318B4213D014318B4213D0143103
:102AC0008B4213D014318B4213D0934214BF4FF476
:102AD00080334FF080730EE001230CE010230AE0F6
:102AE0004FF4807307E04FF4805304E04FF48033D9
:102AF00001E04FF480130A4A5360012380F821302B
:102B0000436B002480F8204013B19847204610BD45
:102B1000184610BD80000240000402400800024038
:102B2000000002402DE9F84F0546914688460368AB
:102B3000B94EBA4F21BBB34253D0B94A934252D097
:102B40001432934251D0143293423ED01432934205
:102B50003ED0143293423ED0BB423FD002F5677262
:102B600093423ED0143293423DD0143293423CD033
:102B7000AC4CA34214BF4FF400344FF4005449E06E
:102B8000B34241D0A64A934240D0143293423FD040
:102B9000143293422CD0143293422CD014329342EC
:102BA0002CD0BB422DD002F5677293422CD0143248
:102BB00093422BD0143293422AD09A4CA3420CBF9A
:102BC0004FF480444FF4802424E04FF4005421E07B
:102BD0004FF400341EE04FF400141BE04FF000747B
:102BE00018E0022416E0202414E04FF4007411E0F1
:102BF0004FF480440EE04FF480240BE04FF4800447
:102C000008E04FF0806405E0042403E0402401E084
:102C10004FF48064FDF7D6FBDFF80CA283462B68E7
:102C2000DFF8FCE1DFF810C27C48BB4219D9DAF8C2
:102C300000100C4200F562707B4940F0AC806345A7
:102C4000DAF8000015D079498B4216D014318B4246
:102C500018D014318B420CBF4FF400414FF40021C7
:102C600026E073490A68144240F0A280B342086823
:102C700001D108211CE0734501D1802118E06D4A83
:102C8000934202D14FF4006112E01432934200F0FB
:102C900086801432934200F085801432934200F013
:102CA0008480143293420CBF4FF000614FF4002136
:102CB000014214BF01210021002951D0BB4218D983
:102CC0005D4A93420DD0143293420CD01432934299
:102CD0000BD0143293420CBF4FF400434FF4002347
:102CE00005E0082303E0802301E04FF400634E4A2F
:102CF00028E0B34216D04A4A934215D01432934288
:102D000014D01432934214D01432934214D014329B
:102D1000934214D01432934214BF4FF400234FF067
:102D200000630EE008230CE080230AE04FF4006308
:102D300007E04FF4004304E04FF4002301E04FF4B8
:102D400000033B4A5360AB6B43F00103AB630423C6
:102D500085F82130002385F820300120BDE8F88F68
:102D6000B9F1FF3F3FF460AFB9F1000F0BD1AB6B8E
:102D700043F02003AB630320002385F8210085F88E
:102D80002030BDE8F88FFDF71DFBCBEB000081453F
:102D9000BFF445AFEBE7B8F1000F0DD061E04FF4A1
:102DA000004185E74FF4002182E74FF400017FE7FF
:102DB000B8F1000F18D06CE083420DD01B4A93424B
:102DC0000CD0143293420BD0143293420CBF4FF408
:102DD00000534FF4003305E0022303E0202301E019
:102DE0004FF400734B603AE0B34227D00C4A934251
:102DF00026D01432934225D01432934225D0143277
:102E0000934225D01432934225D0834214BF4FF40D
:102E100000334FF0007320E00800024080000240C1
:102E20001C00024044040240000402401C04024012
:102E300000000240300002400804024002230CE07F
:102E400020230AE04FF4007307E04FF4005304E03E
:102E50004FF4003301E04FF40013264A536001237E
:102E600010E0834244D0244A93423CD0143293422F
:102E70003BD0143293420CBF4FF480434FF4802375
:102E80004B601123002085F8213085F82000BDE833
:102E9000F88FB34225D0194A934212D0143293428C
:102EA00011D01432934211D01432934211D0143203
:102EB000934211D0834214BF4FF480234FF08063BC
:102EC0000CE040230AE04FF4806307E04FF48043B6
:102ED00004E04FF4802301E04FF48003054A53607F
:102EE000CFE70423FAE74023CAE74FF48063C7E73C
:102EF0000423C5E7000002401C0402401C000240FD
:102F000070B50368AB4DAB4204461CD9AA4A1168A0
:102F1000083293420DD0143293420CD014329342B3
:102F20000BD01432934214BF4FF400224FF40042EE
:102F300005E0082203E0802201E04FF400620A422B
:102F400000F08B802BE09D4A11680832934215D027
:102F50001432934214D01432934213D01432934259
:102F600013D01432934213D01432934213D0AB4295
:102F700014BF4FF400224FF000620EE008220CE074
:102F800080220AE04FF4006207E04FF4004204E0C0
:102F90004FF4002201E04FF400020A427AD01A688E
:102FA000120757D51A68AB4222F008021A6018D9E6
:102FB000834A93420DD0143293420CD01432934280
:102FC0000BD0143293420CBF4FF400434FF4002354
:102FD00005E0082303E0802301E04FF40063764A14
:102FE00029E0784A934216D01432934215D0143215
:102FF000934214D01432934214D01432934214D01A
:103000001432934214D0143293420CBF4FF0006339
:103010004FF400230EE008230CE080230AE04FF475
:10302000006307E04FF4004304E04FF4002301E0A5
:103030004FF40003614A5360A36B43F00103A363A1
:10304000042384F82130002384F82030236B0BB153
:10305000204698472368AB421CD9574A116808326A
:1030600093420DD0143293420CD0143293420BD0C1
:103070001432934214BF4FF480224FF4804205E093
:10308000042203E0402201E04FF480620A4200F093
:1030900036812BE0494A11680832934215D0143228
:1030A000934214D01432934213D01432934213D06B
:1030B0001432934213D01432934213D0AB4214BF54
:1030C0004FF480224FF080620EE004220CE0402298
:1030D0000AE04FF4806207E04FF4804204E04FF4CE
:1030E000802201E04FF480020A423AD01A68560763
:1030F00021D51A68900603D41A6822F004021A60D7
:10310000AB427DD92E4A934273D01432934272D08F
:103110001432934271D01432934214BF4FF480237F
:103120004FF48043244A5360112384F82130E36A2A
:103130000BB1204698472368AB4213D91E4A116849
:103140000832934229D01432934228D01432934249
:1031500027D01432934214BF4FF400324FF4005280
:1031600034E02368154A11680832934215D01432AE
:10317000934214D01432934213D01432934213D09A
:103180001432934213D0143293421DD0AB4214BF79
:103190004FF400324FF0007218E0022216E02022B5
:1031A00014E04FF4007211E04FF400520EE04FF4BF
:1031B00000320BE0800002400004024000000240A8
:1031C00008040240080002404FF400120A4214BFF3
:1031D00001220022002A00F094801A68910740F131
:1031E00090801A68920636D41A6822F002021A6099
:1031F00031E0042396E7402394E74FF4806391E79E
:10320000404A934216D01432934215D0143293425E
:1032100014D01432934214D01432934214D0143286
:10322000934214D01432934214BF4FF480234FF0D2
:1032300080630EE004230CE040230AE04FF4806337
:1032400007E04FF4804304E04FF4802301E04FF4A3
:1032500080032D4A67E7AB4218D92C4A93420DD020
:10326000143293420CD0143293420BD01432934256
:1032700014BF4FF400334FF4005305E0022303E082
:10328000202301E04FF40073214A29E01D4A9342B4
:1032900016D01432934215D01432934214D0143203
:1032A000934214D01432934214D01432934214D067
:1032B0001432934214BF4FF400334FF000730EE00A
:1032C00002230CE020230AE04FF4007307E04FF4E0
:1032D000005304E04FF4003301E04FF400130A4AB6
:1032E0005360A36BA363012384F82130002384F887
:1032F0002030A36A2BB12046BDE8704018472368F0
:103300001CE770BD080002400000024008040240B3
:103310000004024090F821007047806B704700BFA6
:103320000B4AD36813F0100305D00A49CB6943F068
:103330000203CB611023D268520706D50549CA693A
:1033400042F00102CA6143F00403014AD3607047AE
:10335000002002405003002070B51D46144B144657
:103360001A7E012A21D0134E01221A7632690128D1
:1033700042F4A05232619960C3E9044501D10322AD
:1033800003E002284FF0040202D11A70586002E0F4
:10339000052018705A60074A0020D8611369A4B24A
:1033A00043F0010313610C8070BD022070BD00BFAB
:1033B000500300200020024070477047464BDA68F7
:1033C00012F0100F2DE97043444E02D1DB685A070A
:1033D00009D54FF0FF33B068B360FFF7A1FFFFF7E7
:1033E000ECFF002333703C4DEB689B0663D5202334
:1033F000EB603378394C002B5DD02378012B19D149
:103400006368013B636063686BB1A068FFF7D4FF3A
:10341000A06800F50060A0602B6923F002032B6117
:1034200000F0DEFA47E04FF0FF30A0602370FFF7B6
:10343000C3FF40E02378022B09D12B6923F004035A
:103440002B610020FFF7B8FF0023237033E063688F
:10345000013B63606368E3B1A3680233A360A168C2
:10346000D4E904894FEA184242EA09424FEA194373
:10347000C4E904232B6923F001032B61D4E904235D
:103480000023E3612B6992B243F001032B610A80B0
:1034900011E02378032B01D1A06805E02378A06810
:1034A000042B0CBF02380638FFF786FF4FF0FF33BE
:1034B000B36000233370337803F0FF0153B9064B38
:1034C0001A6922F007021A611A6922F4A0521A61DD
:1034D000024B1976BDE870830020024050030020A3
:1034E000064B1A69120641BF054A5A6002F188323A
:1034F00000204CBF5A600120704700BF00200240EE
:1035000023016745034A136943F0800313610020D8
:10351000704700BF00200240064B186910F400708D
:1035200001BF054A9A6002F188329A6018BF0120F3
:10353000704700BF0020024023016745034A13691A
:1035400023F4007313610020704700BF0020024085
:10355000014BD869704700BF5003002070B5044686
:10356000FCF730FF114D0646EB6813F0010F0F4BCF
:103570000AD0611CF8D00CB9032070BDFCF722FF03
:10358000801B8442F0D2F7E7DA68920644BF20221B
:10359000DA60DB68DB0604D4044BD86810F0040062
:1035A00002D0FFF7BDFE012070BD00BF0020024029
:1035B0002DE9F84F214C1F46237E012B05468946F5
:1035C000164637D001234CF250302376FFF7C6FF62
:1035D00060BB012D03D0022D0CBF022504254FF046
:1035E0000008DFF85CB0C2464FEA081230463946A0
:1035F00009F084FDC4F81CA0DBF8103080B243F061
:103600000103CBF8103029F818004CF25030FFF7C6
:10361000A5FFDBF8103023F00103CBF8103028B9F8
:1036200008F101085FFA88F39D42DDD80023237674
:10363000BDE8F88F0220BDE8F88F00BF50030020DE
:1036400000200240044A136943F4005313614CF212
:103650005030FFF783BF00BF00200240064B00221E
:10366000DA61064B1A6942F004021A611A6942F0E3
:1036700040021A61704700BF500300200020024042
:1036800038B505464CF25030FFF768FF10BB124BBF
:10369000124CD861236943F020032361236943F06E
:1036A000400323614CF25030FFF758FF236923F0A9
:1036B0002003236170B9236943F010032361084B91
:1036C000ADB21D804CF25030FFF748FF236923F064
:1036D0001003236138BD00BF5003002000200240CA
:1036E00000F8FF1F38B5154BDB6903F00603022B0A
:1036F00004D0062B0CBFCC25AA2500E0BB254CF23C
:103700005030FFF72BFFB8B90D4A0C4CD06123693C
:1037100043F020032361236943F0400323614CF20B
:103720005030FFF71BFF236923F02003236118B9F2
:103730002846BDE83840A3E738BD00BF002002405E
:10374000500300202DE9F843834F3B7E012B804638
:1037500000F0FE80D8F800300120DC07387640F118
:10376000A680D8F80430DFF8F891D8F80860D9F8C6
:10377000205083424CF2503046D1FFF7EFFE044612
:10378000002840F0E080F861FFF7ACFF0446002815
:1037900040F0D980D9F8102025EA0605E9B242F0B8
:1037A0001002FF29C9F8102004D1C5F30721FF2911
:1037B0000BD114E0694A13890B4013814CF250304D
:1037C000FFF7CCFE00286AD1EFE7644A53890B402B
:1037D00053814CF25030FFF7C1FE00285FD1C5F392
:1037E0000741FF2909D05D4A93890B4093814CF230
:1037F0005030FFF7B3FE002851D12D0EFF2D4FD0D2
:10380000564AD3891D4045E0FFF7A8FE044600282C
:1038100040F09980F861FFF765FF0446002840F00A
:103820009280D9F810203543E9B242F01002FF2906
:10383000C9F8102004D1C5F30721FF290BD114E0EA
:10384000464A13899BB20B4313814CF25030FFF769
:1038500085FE20BBEFE7414A53899BB20B4353815E
:103860004CF25030FFF77AFEC8B9C5F30741FF2983
:1038700009D03A4A93899BB20B4393814CF2503062
:10388000FFF76CFE58B92D0EFF2D09D0334AD389AE
:103890009BB21D43D5814CF25030FFF75FFE0446CA
:1038A0002F4A136923F0100313610CB14BE0044657
:1038B000D8F80030990706D598F80C00FFF7E0FE1D
:1038C000044600283FD1D8F800305A071CD54CF2E6
:1038D000503098F80D50FFF741FE0446002832D1D1
:1038E0001F4CF861236943F0100323611B4B45F023
:1038F00088055D804CF25030FFF730FE236923F0DD
:10390000100323610446F0B9D8F800301B071AD51C
:103910004CF25030D8F8106098F81450FFF71EFEA3
:10392000044680B90E4CF8612369ADB243F0100330
:1039300023614CF250303580FFF710FE236923F0ED
:1039400010032361044600233B762046BDE8F8833C
:103950000220BDE8F88300BF5003002000F8FF1FDD
:1039600000200240072303600D4B1A6A8260DA6967
:1039700002F00602022A04D0062A0CBFCC22AA2298
:1039800000E0BB220273DB694FF4807292FAA2F26C
:10399000B2FA82F203F4EE43D3404373704700BFA0
:1039A000002002400C4B98420C4BDB6908D14FF4CD
:1039B0007F0090FAA0F0B0FA80F003F47F0307E0F4
:1039C0004FF07F4090FAA0F0B0FA80F003F07F4310
:1039D00023FA00F0704700BF04F8FF1F00200240E8
:1039E000064B0022DA61064B1A6942F002021A61A4
:1039F00058611A6942F040021A6170475003002072
:103A0000002002402DE9F041234D2B7E012B07467B
:103A100088463ED003680124A3422C764CF25030F5
:103A200010D1FFF79BFD08B101202EE0FFF716FE35
:103A30004CF25030FFF792FD184A136923F004034B
:103A4000136122E0FFF78AFD0028EDD14FF0FF332C
:103A5000C8F8003020467E68104CBA687B6803EBDB
:103A6000C2239E4211D23046FFF7BAFF4CF25030CB
:103A7000FFF774FD236923F00203236110B1C8F836
:103A8000006002E006F50066E7E700232B76BDE85C
:103A9000F0810220BDE8F0815003002000200240A8
:103AA000124A38B5137E012B1BD0117801231376EF
:103AB00001F0FF04B9B90E4D296941F4A051296103
:103AC0000168994204D102231370FFF7C7FD06E095
:103AD00013708368406853609060FFF781FF204651
:103AE00038BD022038BD184638BD00BF5003002045
:103AF000002002402DE9F04FDFF884910B68DFF8D9
:103B0000848185B04C4601930023019ADA4000F08D
:103B1000B180012202FA03FA019A12EA0A0600F0C1
:103B2000A7804A6822F0100EBEF1020F14D14FEAAE
:103B3000D30C00EB8C0C03F0070BDCF820704FEA81
:103B40008B0B0F2505FA0BF527EA05050F6907FA18
:103B50000BF72F43CCF820704FEA430B032705687F
:103B600007FA0BFC6FEA0C0C174005EA0C0507FA84
:103B70000BF70EF1FF3E3D43BEF1010F056010D87B
:103B80008568CF680CEA050507FA0BF72F438760B5
:103B9000456825EA0A0AC2F300159D4045EA0A0570
:103BA0004560C5680CEA050C8D6805FA0BF545EA19
:103BB0000C05C560D5005BD5D8F8185045F0010557
:103BC000C8F81850D8F8185023F0030E0EF1804EA4
:103BD00005F001050EF5803E039503F0030C039DEF
:103BE000DEF808504FEA8C0C0F2707FA0CF7B0F1FB
:103BF000904F25EA070511D0204FB84210D007F5A5
:103C00008067B8420ED007F58067B8420CD007F540
:103C10008067B84214BF0527042706E0002704E0A8
:103C2000012702E0022700E0032707FA0CFC4CEA18
:103C30000505CEF80850D9F80050F74312F4803F3C
:103C40000CBF3D4035432560656812F4003F0CBF52
:103C50003D4035436560A56812F4801F0CBF3D40B0
:103C60003543A560E568920254BF3D403543E560A9
:103C700001334AE705B0BDE8F08F00BF00040048FB
:103C800000040140001002402DE9F04F374ADFF8F0
:103C9000E49000234FF0010C4FF003084FF00F0E9B
:103CA00031FA03F460D00CFA03FA11EA0A0659D08B
:103CB0005C00056808FA04F4E443DF08254000EBE3
:103CC0008707056003F00705D7F820B0AD000EFAAE
:103CD00005F52BEA05053D62856825408560456848
:103CE00025EA0A054560C5682C40C46023F003043A
:103CF00004F1804404F5803403F00307A568BF0095
:103D00000EFA07FBB0F1904F05EA0B0A0FD0184DE1
:103D1000A8420ED005F58065A8420CD005F5806557
:103D2000A8420AD048450CBF0425052506E0002519
:103D300004E0012502E0022500E00325BD40AA457C
:103D400010D1A56825EA0B05A5601468F643344038
:103D50001460546834405460946834409460D4686B
:103D60002640D66001339BE7BDE8F08F0004014098
:103D700000040048001000480369194214BF0120E4
:103D8000002070470AB181617047816270474369C2
:103D900059404161704782B04FF480330193019BD9
:103DA0000B430193019BC361C161019BC361C36963
:103DB0000193C06980F48030C0F3004002B07047C6
:103DC000704708B5034B5969014202D05861FFF7AB
:103DD000F7FF08BD0004014003689A69910744BFDA
:103DE00000229A629A69D2075EBF9A6942F0010284
:103DF0009A617047704730B50568064C68680440A2
:103E0000039820430343C1F309010B4343EA0242F1
:103E10006A6030BD009800FC184B30B5446B9C4282
:103E200001F0120201F0040302D0154DAC420ED194
:103E3000002B01F011010CBF0023B823112908BF8A
:103E400043F09003122A12D143F060030FE0002BDD
:103E50000CBF0023B823CC0748BF43F0F203890707
:103E600048BF43F0F403122A08BF43F0200301685F
:103E70000A6813430B60002030BD00BFF55D0008E9
:103E8000BD5B000811F0010307D090F8413003F04A
:103E90002803282B0CBF4223F2238A0709D590F868
:103EA000412002F02802282A0CBF43F0440343F0CB
:103EB000F4034A0701F0110248BF43F0B80301F0D0
:103EC0001201112A08BF43F09003122901680A6801
:103ED00008BF43F0600322EA03030B600020704731
:103EE0002DE9F041069F0446884616461D46226885
:103EF000936938EA03030CBF01230023B34213D1B3
:103F00006B1CF5D055B9202384F84130002384F888
:103F1000423084F840300320BDE8F081FCF752FACB
:103F2000C01B8542E3D2EEE70020BDE8F08110B56A
:103F3000446A2268136823F480431360638D9BB244
:103F40007BB1238D616AA06B1944638D61629BB262
:103F5000FF2B8CBFFF23638D2385238D2832FEF733
:103F600020FD20461221BDE8104055E710B5446AF7
:103F700021680B6823F400430B60638D9BB27BB117
:103F8000238D626AE06B1A44638D62629BB2FF2BE1
:103F90008CBFFF23638D2385238D2431FEF701FD24
:103FA00020461221BDE8104036E7036870B504468C
:103FB000986910F010000D4616460BD170BD996936
:103FC0008A0613D4691CFAD035B1FCF7FBF9801BC3
:103FD000854201D32368F2E7202384F8413000238F
:103FE00084F8423084F84030032070BD1022202530
:103FF000DA612046DD61FFF7EFFE2268074B51686A
:104000000B40536004236364002384F8415084F818
:10401000403084F84230012070BD00BF00E800FE4F
:1040200070B504460D46164623689B699B071CD451
:10403000324629462046FFF7B8FFC0B96A1CF3D0C4
:104040006DB9636C43F020036364202384F841302E
:10405000002384F8423084F84030032070BDFCF720
:10406000B1F9801B8542DFD2EBE7002070BD012053
:1040700070BDF7B5099E1F464FF4005304460093E8
:1040800015464FF08073FAB2FFF7B5FE3246089935
:104090002046FFF7C5FF20B1636C042B0ED1012031
:1040A00019E0012F23680BD1EDB29D62089B0096A9
:1040B000002280212046FFF713FF60B103200AE0B1
:1040C0002A0A9A62089932462046FFF7A9FF00287B
:1040D000E2D12368E8E703B0F0BDF7B5099E1F46BB
:1040E0004FF400530446009315460023FAB2FFF73D
:1040F00082FE324608992046FFF792FF20B1636C9A
:10410000042B0ED1012019E0012F23680BD1EDB251
:104110009D62089B0096002240212046FFF7E0FEAA
:1041200060B103200AE02A0A9A62089932462046C2
:10413000FFF776FF0028E2D12368E8E703B0F0BD7F
:1041400070B504460D46164623689B695B072AD462
:10415000324629462046FFF728FF30BB23689A697C
:1041600092060DD52021D9615D68114A2A405A6016
:10417000606484F8400084F8411084F8420014E040
:104180005DB9636C43F020036364202384F84130FD
:10419000002384F84030032070BDFCF713F9801B26
:1041A0008542D1D2EDE7002070BD012070BD00BF77
:1041B00000E800FE704770B504460D4616462368B9
:1041C0009B699B061AD4324629462046FFF7EDFE2E
:1041D000B0B96DB9636C43F020036364202384F8A5
:1041E0004130002384F8423084F84030032070BD11
:1041F000FCF7E8F8801B8542E1D2EBE7002070BDB8
:10420000012070BD704710B50446002847D090F8D3
:10421000413003F0FF021BB980F84020FFF7F2FFA6
:10422000242384F841302368E1681A6822F00102EF
:104230001A60626822F070621A619A6822F4004281
:104240009A60A26842B1012903D142F400429A6007
:1042500007E042F404429A60022904BF4FF400626E
:104260005A605A68216942F0007242F400425A6072
:1042700062690A43A16942EA0122DA60E169226ABD
:104280000A431A601A6842F001021A6000202023D3
:10429000606484F84130206384F8420010BD01203E
:1042A00010BD704710B5044698B10268242380F809
:1042B0004130136823F001031360FFF7F2FF002081
:1042C000606484F8400084F84100206384F8420070
:1042D00010BD012010BD2DE9F743984690F84130FC
:1042E000202B04460E46914640F0868090F84030E0
:1042F000012B00F08180012780F84070FCF762F804
:104300001923054600903A464FF400412046FFF736
:10431000E7FD00284FD1212384F84130102384F891
:1043200042306064A4F82A80638DC4F824909BB264
:10433000FF2B606305D9FF224FF4005322850093C1
:104340000DE0628D4FF4005392B22285009338E065
:10435000638D9BB2FF2B30D9FF22228500904FF056
:10436000807331462046FFF746FD638D0A999BB264
:104370002A462046002B2DD0FFF752FE28BB636A49
:104380002268591C61621B789362638D228D013B08
:10439000013A9BB292B263852285002AE5D1638DF2
:1043A0009BB2002BE1D000950A9B80212046FFF7AD
:1043B00097FD0028CCD003201FE0628D009092B2C0
:1043C00022854FF00073D2B2CBE7636C042BF2D19D
:1043D000012012E0FFF7EFFE0028F6D12368084A1B
:1043E0002021D9615D682A405A6084F8411084F820
:1043F000400084F8420000E0022003B0BDE8F083F2
:1044000000E800FE2DE9F743984690F84130202B54
:1044100004460E46914640F0868090F84030012BCD
:1044200000F08180012780F84070FBF7CBFF192353
:10443000054600903A464FF400412046FFF750FDF4
:1044400000284FD1222384F84130102384F84230D1
:104450006064A4F82A80638DC4F824909BB2FF2B7B
:10446000606305D9FF224FF41053228500930DE0BD
:10447000628D4FF4105392B22285009338E0638D21
:104480009BB2FF2B30D9FF22228500904FF0807322
:1044900031462046FFF7AFFC638D0A999BB22A464E
:1044A0002046002B2DD0FFF74BFE28BB636A5A1C19
:1044B00062622268526A1A70228D638D013A013B52
:1044C00092B29BB222856385002AE5D1638D9BB2AF
:1044D000002BE1D000950A9B80212046FFF700FDCC
:1044E0000028CCD003201FE0628D009092B222857C
:1044F0004FF00073D2B2CBE7636C042BF2D10120F2
:1045000012E0FFF758FE0028F6D12368084A202160
:10451000D9615D682A405A6084F8411084F84000EF
:1045200084F8420000E0022003B0BDE8F08300BF41
:1045300000E800FE2DE9F74390F84170FFB2202F0C
:104540000446894690461D4640F08E8009B90120F8
:104550008BE0002AFBD090F84030012B00F08480E3
:10456000012380F84030FBF72DFF002221686263B1
:10457000212384F8413084F842706264A4F82A80D0
:104580004B68C4F8249023F400434B600646009027
:104590002B4608212046FFF7A3FC2368024660B99A
:1045A0000827DF61E368022B0DD12B4600963946C0
:1045B0002046FFF795FC236820B15A6842F4004278
:1045C0005A6048E0DF6100962B4600224FF48031AC
:1045D0002046FFF785FC90B12268536843F40043FE
:1045E000536038E0FFF71CFD236880B9626A511CF4
:1045F000616212789A62638D013B9BB26385678D1D
:10460000BFB2324629462046002FEBD107E05A6858
:1046100042F400425A60636C042B1CD197E7FFF709
:10462000CAFD236838B15A6842F400425A60626C8D
:10463000042A10D167642027DF6101222B460096EF
:104640004FF400412046FFF74BFC23685A6842F4C0
:1046500000425A6008B1032007E084F8417084F8F2
:10466000400084F8420000E0022003B0BDE8F0837F
:104670002DE9F34790F84170FFB2202F04468A4697
:1046800091461D4640F08D80002963D0002A61D0FC
:1046900090F84030012B00F084804FF0010880F842
:1046A0004080FBF78FFE2168C4F824A0002222235B
:1046B00084F8413084F842706264A4F82A904B6810
:1046C000626323F400434B60064600902B460821AA
:1046D0002046FFF705FC236820B15A6842F40042E7
:1046E0005A6055E00822DA614FF4803100962B467B
:1046F00042462046FFF7F4FB70B12268536843F44A
:104700000043536044E0626A5B6A511C616213704B
:10471000638D013B9BB26385638D9BB23246294614
:104720002046CBB1FFF70CFD23680028EBD05A6878
:1047300042F400425A609A69520708D5626A5B6A7D
:10474000511C61621370638D013B9BB26385636C86
:10475000202B1DD0012025E0FFF72DFD236838B167
:104760005A6842F400425A60636C042B10D1F1E79E
:104770002027DF6101222B4600964FF4004120469E
:10478000FFF7AEFB23685A6842F400425A6008B152
:10479000032007E084F8417084F8400084F8420068
:1047A00000E0022002B0BDE8F08737B5044690F87B
:1047B0004100202836D12068806910F4004031D1B2
:1047C00094F84050012D2DD0012584F8405021252A
:1047D00084F84150102584F8425060646385134B7F
:1047E000E362134B6363638D62629BB2FF2B8BBFEB
:1047F000FF23638D238523854FF400508CBF4FF03A
:1048000080734FF0007394F8282000900025204614
:10481000FFF7F1FA84F8405001212046FFF7FCFA37
:10482000284600E0022003B030BD00BF0000FFFFBB
:10483000D95C000837B5044690F84100202836D1ED
:104840002068806910F4004031D194F84050012D67
:104850002DD0012584F84050222584F841501025A0
:1048600084F8425060646385124BE362124B6363C9
:10487000638D62629BB2FF2B8BBFFF23638D238509
:1048800023854FF410508CBF4FF080734FF00073AE
:1048900094F82820009000252046FFF7ACFA84F811
:1048A000405002212046FFF7B7FA284600E00220D8
:1048B00003B030BD0000FFFFD95C000870B590F870
:1048C0004140E4B2202C1ED190F84050012D1AD066
:1048D000212580F84150066880F842400024446455
:1048E000756825F4004575604285428D0285074A4A
:1048F000C262074A4162426380F840400521FFF7E7
:104900008BFA204670BD022070BD00BF0000FFFF83
:10491000155A000870B590F84140E4B2202C1ED121
:1049200090F84050012D1AD0222580F84150066899
:1049300080F8424000244464756825F400457560A1
:104940004285428D0285074AC262074A416242633C
:1049500080F840400621FFF75FFA204670BD022034
:1049600070BD00BF0000FFFF155A00082DE9F3419C
:104970000F46114690F84120202A044663D1026870
:10498000906910F400405ED194F84050012D5AD047
:10499000012584F84050212584F84150102584F8E1
:1049A0004250606463852A4BE3622A4B6363638DE4
:1049B00061629BB2FF2B8BBFFF23638D2385238511
:1049C000258D8CBF4FF080784FF000783DB3A06B01
:1049D000214B83620026214B036328322B46C6629B
:1049E0004663FDF7DEFF4FF4005394F82820009350
:1049F000394643462046FFF7FEF9638D228D84F841
:104A000040609B1A9BB2638511212046FFF704FA90
:104A10002268136843F480431360304614E0104B5F
:104A200063634FF4005300932A464FF000733946F6
:104A30002046FFF7E0F984F8405001212046FFF7B7
:104A4000EBF9284600E0022002B0BDE8F08100BF8B
:104A50000000FFFFF55D00082F3F0008BB5E000867
:104A6000D95C00082DE9F3410F4690F84110202948
:104A7000044663D10168886910F400405ED194F85F
:104A80004050012D5AD0012584F84050222584F849
:104A90004150102584F8425060646385294BE362DD
:104AA000294B6363638D62629BB2FF2B8BBFFF2335
:104AB000638D23852385258D8CBF4FF080784FF043
:104AC00000783DB3E06B214B83620026204B0363EB
:104AD00024312B46C6624663FDF763FF4FF4105343
:104AE00094F828200093394643462046FFF783F97F
:104AF000638D228D84F840609B1A9BB263851121DF
:104B00002046FFF789F92268136843F400431360D5
:104B1000304614E00F4B63634FF4105300932A4662
:104B20004FF0007339462046FFF765F984F840508E
:104B300001212046FFF770F9284600E0022002B06C
:104B4000BDE8F0810000FFFFF55D00086D3F000843
:104B5000BB5E0008D95C000838B5044694F84130C3
:104B6000DBB2202B39D1002935D0002A33D094F87C
:104B70004050012D31D0012584F84050212584F882
:104B80004150002584F8423065646285638D144A83
:104B9000E262A06B134A62639BB2134A616223858F
:104BA0008262124A02632268C56245632832FDF7B9
:104BB000F8FE2268536823F400435360042184F80C
:104BC00040502046FFF728F92268136843F48043D9
:104BD0001360284638BD012038BD022038BD00BF13
:104BE0000000FFFFBD5B0008B5410008BB5E000888
:104BF00090F84130DBB2202B70B504463BD1002940
:104C000037D0002A35D090F84000012833D0012059
:104C100084F840000025222084F8410084F84230C6
:104C200065646285638D154AE262E06B144A6263D3
:104C30009BB22668134A616223858262124A02632C
:104C4000C5620A46456306F12401FDF7AAFE226803
:104C5000536823F400435360042184F840502046F5
:104C6000FFF7DAF82268136843F40043136028461C
:104C700070BD012070BD022070BD00BF0000FFFFAD
:104C8000BD5B0008F53D0008BB5E00082DE9F04F54
:104C90009B4690F8413085B0202B04460F46039286
:104CA000BDF83CA0DDF8409040F09F800E9B0BB912
:104CB00001209BE0BAF1000FFAD090F84030012BB0
:104CC00000F09380012580F84050FBF77BFB19230F
:104CD000009006462A464FF400412046FFF700F9AF
:104CE000804600284ED1212384F84130402384F8A7
:104CF00042300E9B606463626063A4F82AA0019650
:104D0000CDF800905B46039A39462046FFF7B1F98B
:104D100018B1636C84F8408056E0638D9BB2FF2B22
:104D200005D9FF22228500904FF0807306E0628D46
:104D3000009092B222854FF00073D2B239462046DD
:104D4000FFF759F8324649462046FFF769F900282F
:104D500039D1636A2268591C61621B789362638D42
:104D6000228D013B013A9BB292B26385228502BB40
:104D7000638D9BB2EBB100964B4680212046FFF736
:104D8000AFF808B1032031E0638D9BB2FF2B05D94A
:104D9000FF22228500904FF0807306E0628D009024
:104DA00092B222854FF00073D2B239462046FFF707
:104DB00022F8638D9BB2002BC4D13246494620466F
:104DC000FFF7F9F918B1636C042BDBD170E72368A6
:104DD000084A2021D9615D682A405A6084F8411050
:104DE00084F8400084F8420000E0022005B0BDE8ED
:104DF000F08F00BF00E800FE2DE9F04F9B4690F8D1
:104E0000413085B0202B04460F460392BDF83CA0EC
:104E1000DDF8409040F0A5800E9B0BB90120A1E089
:104E2000BAF1000FFAD090F84030012B00F09980D1
:104E3000012580F84050FBF7C5FA1923009006467B
:104E40002A464FF400412046FFF74AF880460028E2
:104E500077D1222384F84130402384F842300E9BDE
:104E6000606463626063A4F82AA00196CDF80090A4
:104E70005B46039A39462046FFF72FF918B1636C59
:104E800084F840805AE0638D9BB2FF2B07D94FF422
:104E90001053FF22009322854FF0807308E0628D4B
:104EA0004FF4105392B222850093D2B24FF00073A8
:104EB00039462046FEF79FFF00964B46002204210C
:104EC0002046FFF70DF800283BD1636A5A1C626246
:104ED0002268526A1A70228D638D013A013B92B2A8
:104EE0009BB222856385F2B9638D9BB2DBB10096DC
:104EF0004B4680212046FEF7F3FF10BB638D9BB22B
:104F0000FF2B05D9FF22228500904FF0807306E029
:104F1000628D009092B222854FF00073D2B2394672
:104F20002046FEF768FF638D9BB2002BC4D132464A
:104F300049462046FFF73FF928B1636C042B3FF444
:104F40006DAF03200EE02368084A2021D9615D6817
:104F50002A405A6084F8411084F8400084F84200E6
:104F600000E0022005B0BDE8F08F00BF00E800FEC1
:104F70002DE9F3479A4690F84130DDF82880BDF8D6
:104F80002C70202B04460E46914653D1B8F1000FE9
:104F90004ED0002F4CD00368996911F4004549D1D7
:104FA00090F84030012B45D0012380F84030FBF7CA
:104FB00009FA212384F84130402384F84230204B01
:104FC00065646785E362618D1E4B636389B2FF2967
:104FD0008BBFFF23638D238523854FF01903019039
:104FE0000093C4F8248053464A46314620468CBF7D
:104FF0004FF080774FF00077FFF73BF8054640B160
:10500000636C042B4FF0000384F8403010D003256C
:1050100011E000903146204694F828203B46FEF7E8
:10502000EAFE84F8405001212046FEF7F5FE02E03A
:10503000012500E00225284602B0BDE8F08700BF48
:105040000000FFFFD95C00082DE9F3479A4690F86D
:105050004130DDF82880BDF82C70202B04460E4628
:10506000914655D1B8F1000F50D0002F4ED00368B3
:10507000996911F400454BD190F84030012B47D08D
:10508000012380F84030FBF79DF9222384F841305A
:10509000402384F84230214B65646785E362618D6B
:1050A0001F4B636389B2FF298BBFFF23638D238569
:1050B00023854FF0190301900093C4F824805346D0
:1050C0004A46314620468CBF4FF080774FF000773C
:1050D000FFF703F8054640B1636C042B4FF0000363
:1050E00084F8403012D0032513E04FF4105300939E
:1050F0003146204694F828203B46FEF77CFE84F893
:10510000405002212046FEF787FE02E0012500E024
:105110000225284602B0BDE8F08700BF0000FFFF6F
:10512000D95C00082DE9F3479A4690F841300A9E71
:10513000BDF82C80202B04460F4691466AD1002EE4
:1051400066D0B8F1000F63D00368996911F4004587
:1051500060D190F84030012B5CD0012380F84030C2
:10516000FBF730F9212384F84130402384F84230A2
:105170002B4B6564A4F82A80E362618D294B63633D
:1051800089B2FF298BBFFF23638D238523854FF0D1
:10519000190301900093666253464A4639462046F9
:1051A0008CBF4FF080784FF00078FEF762FF054625
:1051B00040B1636C042B4FF0000384F8403027D0DB
:1051C000032528E0A06B184B22688362174B03630A
:1051D0002832238DC56231464563FDF7E2FB94F822
:1051E00028200095434639462046FEF704FE638D8D
:1051F000228D84F840509B1A9BB263851121204672
:10520000FEF70AFE2268136843F48043136002E04D
:10521000012500E00225284602B0BDE8F08700BF66
:105220000000FFFFF55D00082F3F0008BB5E00088F
:105230002DE9F3479A4690F841300A9EBDF82C803C
:10524000202B04460F4691466CD1002E68D0B8F151
:10525000000F65D00368996911F4004562D190F898
:105260004030012B5ED0012380F84030FBF7AAF8D4
:10527000222384F84130402384F842302C4B65646B
:10528000A4F82A80E362618D2A4B636389B2FF2907
:105290008BBFFF23638D238523854FF01903019076
:1052A0000093666253464A46394620468CBF4FF00B
:1052B00080784FF00078FEF710FF054640B1636C30
:1052C000042B4FF0000384F8403029D003252AE056
:1052D000E06B2168184B8362184B03633246238DC1
:1052E000C56245632431FDF75CFB4FF4105394F81D
:1052F00028200093394643462046FEF77CFD638D07
:10530000228D84F840509B1A9BB2226863851368F3
:1053100043F40043136011212046FEF77DFD02E0B7
:10532000012500E00225284602B0BDE8F08700BF55
:105330000000FFFFF55D00086D3F0008BB5E000840
:105340002DE9FF471D460023039390F84130202BA1
:105350000446904677D103689B6913F4004372D1E9
:1053600090F84020012A6ED0012280F84020C1F33D
:105370000906242280F8412046F420594364E3685A
:105380002268012B06BF46F0007343F400534B46DE
:105390005360FBF717F8074623689A69910604D50E
:1053A0009A6912F0100220D110E09A69D206F7D45F
:1053B00094F84120A02AF3D0681CEED0002D3AD0FA
:1053C000FBF700F8C01B8542E6D234E000972B467D
:1053D00020212046FEF784FD98BB22682023D3615C
:1053E00084F8413084F840002EE0002200972B46DC
:1053F00020212046FEF774FD024610BB23681021D1
:105400004FF0200AD961C3F81CA00399481C4145FC
:1054100003900DD1596841F48041596020460097AE
:105420002B465146FEF75CFD58B92368C3F81CA013
:10543000039B9845A3D8202384F84130002384F8A7
:105440004030032000E0022004B0BDE8F08737B50B
:10545000044690F84100202837D194F840000128F4
:1054600033D0012084F84000212084F8410010202E
:1054700084F84200002060646385069BE362144B5D
:105480006363638D62629BB2FF2B06D9FF23238582
:105490004FF400504FF0807308E0638D2385E36A7A
:1054A000226B212A14BF4FF40050002094F82820CA
:1054B000009000252046FEF79EFC84F84050012114
:1054C0002046FEF7A9FC284600E0022003B030BDCC
:1054D000D95C000837B5044690F84100202837D140
:1054E00094F84000012833D0012084F840002220A5
:1054F00084F84100102084F8420000206064638535
:10550000069BE362144B6363638D62629BB2FF2B65
:1055100006D9FF2323854FF410504FF0807308E025
:10552000638D2385E36A226B122A14BF4FF4105057
:10553000002094F82820009000252046FEF75BFC10
:1055400084F8405002212046FEF766FC284600E021
:10555000022003B030BD00BFD95C00082DE9F04146
:10556000984690F84130282B04460F4616462ED117
:1055700069B362B30521FEF785FC94F84030012B36
:1055800028D0012384F84030292384F84130206852
:105590000021202384F842306164456825F40045E9
:1055A00045606685638D2385C4F82C800B4B63634F
:1055B00083696762DB0344BF0823C36184F840103A
:1055C00020460521FEF728FC0020BDE8F0810120DF
:1055D000BDE8F0810220BDE8F08100BF155A000847
:1055E0002DE9F041984690F84130282B04460F46AB
:1055F00016462ED169B362B30621FEF743FC94F838
:105600004030012B28D0012384F840302A2384F82D
:10561000413020680021202384F8423061644568CD
:1056200025F4004545606685638D2385C4F82C808C
:105630000B4B636383696762DB035CBF0823C36151
:1056400084F8401020460621FEF7E6FB0020BDE866
:10565000F0810120BDE8F0810220BDE8F08100BFAB
:10566000155A000890F84120202A08B509D12822AF
:1056700080F84120044A42630421FEF7CDFB00205C
:1056800008BD022008BD00BF155A000890F841204F
:10569000282A10B513D190F8412090F8421002F05A
:1056A00003020A4302630024202280F8412044635D
:1056B00080F842400421FEF7E5FB204610BD0220A1
:1056C00010BD90F84230102B73B504460E4623D11E
:1056D00090F84030012B21D0012580F84050022164
:1056E000FEF7D0FB29462046FEF7CCFB602384F86A
:1056F00041304FF480432A46009331464FF0007307
:1057000020460025FEF777FB84F840501221204602
:10571000FEF782FB284602E0012000E0022002B0F2
:1057200070BD0268436B9169126803B118477047F6
:105730007047704738B5002580F8425090F84130E6
:10574000212B4FF02003044680F841300BD1112368
:10575000036345630121FEF795FB84F84050204622
:10576000FFF7E6FF38BD1223036345630221FEF70E
:1057700089FB84F840502046FFF7DBFF38BD7047B7
:10578000704738B5002580F8425090F84130292BF9
:1057900004460DD1282380F84130212303630121E1
:1057A000FEF770FB84F840502046FFF7E8FF38BD55
:1057B00090F841302A2B0CD1282380F84130222345
:1057C00003630221FEF75EFB84F840502046FFF79A
:1057D000D7FF38BD70477047164B10B52022C36203
:1057E00000230363436380F8412080F842304B0775
:1057F000044611D5436A5A1C42620268526A1A7002
:10580000038D4BB1013B0385438D013B9BB2438527
:10581000436C43F00403436407212046FEF732FB48
:1058200023681022DA61002384F840302046FFF715
:10583000D2FF10BD0000FFFF7047704770477047F0
:105840000023344A10B580F84230C2624385436C6D
:105850001943416490F84130282B044607D090F852
:105860004130292B03D090F841302A2B0AD1032153
:105870002046FEF707FB282384F8413000232363EA
:10588000254B0BE00721FEF7FDFA94F84130602B21
:105890001CBF202384F84130002323636363236803
:1058A0001A6812F480411A680DD022F48042A06B6D
:1058B0001A601A4B4363002384F84030FDF7C4F8A4
:1058C00038B3A06B0FE012F4004210D01A68E06BFE
:1058D00022F400421A60114B436384F84010FDF734
:1058E000B3F8B0B1E06B436BBDE81040184794F8D3
:1058F0004130602B08D1202384F8413084F84020C7
:105900002046FFF79CFF10BD84F840202046FFF79B
:1059100095FF10BD0000FFFF155A0008275F000823
:1059200038B5036820220446DA610822DA610D46A0
:105930000721FEF7A7FA23685A6842F400425A602A
:105940005968324A0A405A602046FEF745FA2268F2
:105950001368580402D41368190409D594F8413027
:10596000212B0CBFA36BE36B1B685B689BB2638549
:10597000638D9BB21BB1636C43F0040363646B07DC
:1059800010D5636A526A591C61621A70238D4BB13B
:10599000013B2385638D013B9BB26385636C43F0C0
:1059A000040363640023236384F842306363636CFD
:1059B00063B1616C2046FFF743FF94F84130282B18
:1059C00023D129462046BDE8384005E7E26A12F5B2
:1059D000803F0AD00E4AE262202284F8412084F8F7
:1059E00040302046FFF7F7FE38BD94F8412084F898
:1059F0004030222A4FF0200284F84120204602D174
:105A0000FFF7BEFE38BDFFF7BAFE38BD00E800FE66
:105A10000000FFFF2DE9F84390F84030012B0446C9
:105A20000E46174600F0C7800123CD0680F84030AF
:105A30002FD5D0062DD5638D9BB213BBE36AB3F18E
:105A4000007F03D0E36AB3F1007F08D194F84130BE
:105A5000282B04D131462046FFF7BEFE9EE0E36AC4
:105A600013F5803F236809D094F84120292A05D1F5
:105A70001022DA612046FEF7AFF926E01022DA6143
:105A80008CE023681022DA61636C43F004036364E2
:105A900084E071071DD57A071BD5638D9BB263B176
:105AA000636A5A1C62622268526A1A70238D013B33
:105AB0002385638D013B9BB26385638D9BB2002B75
:105AC0006CD1E36A13F5803F68D02046FFF759FE9A
:105AD00064E0330746D53D0744D594F8413003F0E0
