:020000040800F2
:10000000005000200D01000855010008C928000813
:1000100055010008550100085501000800000000C6
:100020000000000000000000000000005501000872
:10003000550100080000000055010008890400086F
:100040005501000855010008550100085501000838
:100050005501000855010008550100085501000828
:10006000A5280008550100085501000855010008A1
:100070005501000855010008550100085501000808
:1000800055010008550100085501000855010008F8
:1000900055010008550100085501000855010008E8
:1000A00055010008550100085501000855010008D8
:1000B00055010008550100085501000855010008C8
:1000C00055010008550100085501000855010008B8
:1000D00055010008F92700085501000855010008DE
:1000E00055010008550100085501000800000000F6
:1000F0000000000000000000000000000000000000
:1001000000000000000000005FF808F1002103E09B
:100110000B4B5B58435004310A480B4B42189A4230
:10012000F6D30A4A02E0002342F8043B084B9A4205
:10013000F9D300F011F809F02DFF03F0E9FA704748
:1001400068C100080000002080080020800800200E
:10015000601B0020FEE70000374B82B01A6842F0B7
:1001600001021A605968354A0A405A601A6822F03A
:10017000847222F480321A601A6822F480221A6093
:100180005A6822F4FE025A604FF41F029A6000225D
:10019000009201921A6842F480321A601A6802F4DE
:1001A00000320192009A01320092019A1AB9009A23
:1001B000B2F5A06FF2D11A6812F4003218BF012212
:1001C0000192019A012A05D04FF000621C4B9A60FF
:1001D00002B070471B4A116841F0100111601168AC
:1001E00021F003011160116841F0020111605A68A9
:1001F0005A605A685A605A6842F480625A605A6873
:1002000022F47C125A605A6842F4E8125A601A6862
:1002100042F080721A601A689201FCD55A6822F086
:1002200003025A605A6842F002025A605A6802F0A9
:100230000C02082AFAD1C7E7001002400000FFF8BC
:1002400000ED00E000200240134A144B516801F019
:100250000C0104290CD008290CD0114919605268EE
:10026000C2F303121A4411791A68CA401A6070471F
:100270000C49F3E751685068C1F38341C00301F1B1
:10028000020102D408484143E8E7506880034CBFAC
:1002900003480448F7E700BF0010024000000020B8
:1002A00000127A000024F40000093D00022337B553
:1002B000ADF8043018238DF807300323154C01A93D
:1002C00015488DF8063000F0AAFC204601F076FDB6
:1002D000602301252380002321464FF08040E380E6
:1002E0002381658001F09EFC08214FF0804001F0E1
:1002F00086FE29464FF0804001F049FE29464FF026
:10030000804001F082FD29464FF0804001F071FDF0
:1003100003B030BD4A1B0020000801404FF080426E
:10032000938D9BB25843FF2390FBF3F080B210876C
:100330007047302307B5ADF8043003238DF806303D
:10034000102301A903488DF8073000F068FC03B0C2
:100350005DF804FB000C0140202108B5074800F0BF
:10036000C1FC01284FF02001044803D1BDE808403A
:1003700000F0C3BCBDE8084000F0BDBC000C01406B
:1003800030B50323042485B0694613488DF8023044
:100390000825ADF800408DF8034000F040FC02A8AD
:1003A00000F036F90023029401240DEB05008DF8CE
:1003B0000C308DF80D508DF80E4000F0EFF801A8CC
:1003C0008DF804508DF805408DF806408DF80740F3
:1003D00002F08AF805B030BD0008014010B50121D7
:1003E00086B04FF4001000F0EFFFC023ADF80430EA
:1003F00003238DF806301C2301A912488DF807301D
:1004000000F00DFC0023ADF80C30ADF810304FF4C7
:100410008063ADF812304FF480434BF6FF72ADF8B5
:100420001430094C094B06A941F8103D2046ADF89F
:100430000E2000F0EBFC0121204600F05FFD06B02D
:1004400010BD00BF000C014000540040A086010018
:1004500008B5FFF7F9FE084B084A1B68F021B3FB0B
:10046000F2F3074A013B5360064B83F82310002345
:1004700093600723136008BD0000002040420F0076
:1004800010E000E000ED00E072B6034A13680133AB
:10049000136062B6704700BF800800204FF47A7383
:1004A000064910B50C681A46B4FBF3F40B68B3FBAD
:1004B000F2F31B1B8342F9D310BD00BF800800205C
:1004C000034B19681A68521A8242FBD3704700BF67
:1004D00080080020034B18684FF47A73B0FBF3F0E8
:1004E000704700BF80080020014B1868704700BFAC
:1004F0008008002010B500F03DFE4FF4803000F081
:1005000059FE00F0ABFF012804460ED00121072060
:1005100000F05AFF01214FF4006000F049FFBDE8F0
:10052000104001211D2000F043BF002000F090FE8C
:10053000002000F0A1FE4FF4A06000F093FE4FF405
:10054000804000F0B5FE022000F094F8102000F08A
:10055000A7F84FF480304FF4E01100F057FE20462A
:1005600000F05EFE392000F065FF0028FAD002207E
:1005700000F05CFE00F064FE0828FBD1C6E700BF77
:100580000022044B1A605A609A60DA60024A5A618B
:10059000704700BF00040140FFFF0F00827930B5B3
:1005A0000168037942B3CC43184A03F180431568CC
:1005B00003F582332540156055682C4054601C6853
:1005C0002143196003689468D9430C409460D4684F
:1005D0002140D1604179102906D191681943916079
:1005E000D1680B43D36030BD01F1804202F5823205
:1005F00011680B43136030BD03F1804303F5823370
:100600001A6822EA0101196030BD00BF00040140F0
:1006100000230C2203600371427183717047024A08
:10062000136918431061704700040140034B5B6974
:10063000034214BF01200020704700BF00040140A6
:10064000014B5861704700BF00040140054B1A6818
:100650005B69034004D0024214BF012000207047B0
:100660001846704700040140014B5861704700BFB5
:1006700000040140034A136803F038031843106074
:10068000704700BF00200240044B1A6822F00802A5
:100690001A601A6810431860704700BF00200240BB
:1006A000044B1A6822F010021A601A68104318608E
:1006B000704700BF00200240034B044A5A6002F119
:1006C00088325A60704700BF00200240230167450E
:1006D000FFF7F2BF024A136943F0800313617047CA
:1006E00000200240FFF7F6BF014BD8698008704731
:1006F00000200240014B186A704700BF00200240F2
:10070000024BD869C0F34000704700BF0020024090
:10071000024B1868C0F34010704700BF0020024031
:10072000044B1A6911B110431861704722EA0000A6
:10073000FAE700BF002002400128064B03D1D86928
:1007400000F001007047DB68184214BF0120002050
:10075000704700BF00200240014BD860704700BFC7
:1007600000200240084BDA68D10709D4DA68520742
:1007700008D4DB6813F0100F14BF03200420704767
:10078000012070470220704700200240084BDA68C1
:10079000D10709D4DA68520708D4DB6813F0100FC8
:1007A00014BF0320042070470120704702207047C7
:1007B0000020024010B50446FFF7E8FF012806D1EB
:1007C0000CB9052010BDFFF7E1FF013CF6E7002C56
:1007D00008BF052010BD10B54FF43020FFF7EAFF29
:1007E000042812D1094C4FF43020236943F004034C
:1007F0002361236943F040032361FFF7DBFF236993
:1008000023F00403DB04DB0C236110BD0020024055
:10081000FFF7E1BFF8B5134C134B0746A36003F194
:100820008833A3604FF400500E461546FFF7C2FF11
:10083000042815D1236947F0F80743F0100323611A
:100840003E430A4B35435D804FF40050FFF7B2FF43
:10085000052805D0236923F01003DB04DB0C23619A
:10086000F8BD00BF002002402301674500F8FF1FCC
:1008700038B505464FF43020FFF79CFF042839D1E6
:100880001D4C1E4B4FF43020A36003F18833A3604E
:10089000236943F020032361236943F0400323616C
:1008A000FFF788FF04281DD1236923F02003DB0410
:1008B000DB0C2361236943F010032361104B7DB1EE
:1008C00000221A804FF43020FFF774FF052811D062
:1008D000094A136923F01003DB04DB0C136138BDF4
:1008E000A522EEE7052805D0236923F02003DB04C9
:1008F000DB0C236138BD00BF0020024023016745A7
:1009000000F8FF1F10B504464FF40050FFF752FFE8
:1009100004282BD1E443234B234AE1B29A6002F12D
:1009200088329A601A69FF2942F010021A6113D1C5
:10093000C4F30723FF2B1AD1C4F30743FF2B1FD1A6
:10094000240EFF2C25D10420164A136923F010032E
:10095000DB04DB0C136109E0144B4FF400501981E8
:10096000FFF728FF0428E3D00528EDD110BD0F4A7A
:100970004FF400505381FFF71DFF0428DCD0F3E74C
:100980000A4A4FF400509381FFF714FF0428D7D090
:10099000EAE7064BA4B2DC814FF40050FFF70AFFF0
:1009A000E2E700BF002002402301674500F8FF1F77
:1009B00070B506464FF400500D46FFF7FBFE0428C5
:1009C00017D10C4C0C4BADB2A36003F18833A3607C
:1009D00023694FF4005043F0100323613580FFF783
:1009E000E9FE052805D0236923F01003DB04DB0CA6
:1009F000236170BD002002402301674570B50546A4
:100A00004FF400500E46FFF7D5FE04280FD1084CD6
:100A10004FF40050236943F0010323612E80FFF758
:100A2000C9FE236923F00103DB04DB0C236170BDE5
:100A300000200240002373B506464FF400500D46D7
:100A40000193FFF7B7FE04281BD10F4C4FF4005061
:100A5000236943F001032361ABB23380FFF7AAFEA1
:100A6000042808D102360196019B2D0C1D804FF4FD
:100A70000050FFF79FFE236923F00103DB04DB0C2A
:100A8000236102B070BD00BF0020024038B5FFF7FF
:100A900037FE00284FF430200CBFA5250025FFF7B6
:100AA00089FE04282BD1164C164B4FF43020A3603E
:100AB00003F18833A360236943F020032361236992
:100AC00043F040032361FFF775FE04280FD123692B
:100AD0004FF4005023F02003DB04DB0C2361236977
:100AE00043F010032361084B1D80FFF763FE0528C8
:100AF00005D0236923F01003DB04DB0C236138BD30
:100B0000002002402301674500F8FF1F38B5054665
:100B10004FF43020FFF74EFE042813D10A4C4FF457
:100B20003020236943F0020323616561236943F0A8
:100B300040032361FFF73EFE236923F00203DB0439
:100B4000DB0C236138BD00BF00200240FFF732BE3E
:100B500008B5264B984209D10121042000F040FC41
:100B600000210420BDE8084000F03ABC204B984228
:100B700006D10121082000F033FC00210820F1E714
:100B80001C4B984206D10121102000F029FC0021C5
:100B90001020E7E7184B984206D10121202000F0F1
:100BA0001FFC00212020DDE7144B984206D10121D3
:100BB000402000F015FC00214020D3E7104B984264
:100BC00006D10121802000F00BFC00218020C9E724
:100BD0000C4B984208D101214FF4807000F000FCCA
:100BE00000214FF48070BDE708BD00BF0008014040
:100BF000000C0140001001400014014000180140A9
:100C0000001C014000200140012108B5084600F009
:100C1000E7FBBDE808400021012000F0E1BBCB78F4
:100C20002DE9F041DA0648BF8A780E8803F00F05F7
:100C300048BF154316F0FF0F1AD000214FF0010EE8
:100C40004FF00F0C02680EFA01F737EA06040BD1D9
:100C50008C000CFA04F822EA080205FA04F4282BA6
:100C600042EA040225D1476101310829EBD1026033
:100C7000FF2E1CD900214FF0010E4FF00F0C4268DF
:100C800001F108040EFA04F434EA06070BD18F00D0
:100C90000CFA07F822EA080205FA07F7282B42EABD
:100CA00007020AD1446101310829E9D14260BDE857
:100CB000F081482B08BF0761D6E7482B08BF0461C5
:100CC000F1E74FF6FF730380022383700423C370A0
:100CD00070478368194214BF012000207047806864
:100CE00080B27047C368194214BF012000207047CA
:100CF000C06880B2704701617047416170470AB1B6
:100D00000161704741617047C160704741F48033B1
:100D1000836181618361836983697047054A1368D0
:100D200023F07F031B041B0C194341EA00111160DF
:100D3000704700BF00000140014B1860704700BFC2
:100D40001C0020420028164A30B500F44015B4BFFC
:100D5000D3695368B5F5401F84B210D1556823F0AC
:100D6000706325F07065556019B1420D1201944011
:100D700023430B4A0028B4BFD361536030BDC20285
:100D80004DBF0322420D1201C0F303454CBFAA40E0
:100D900004FA02F223EA020343F07063E4E700BFBF
:100DA0000000014010B50F2401F0030301F0FC0125
:100DB00001F1804101F580318A689B009C4022EA64
:100DC00004028A608A6898401043886010BD014B15
:100DD00018607047DC00204208B50B4B0121984297
:100DE0000AD14FF4001000F007FB00214FF400106F
:100DF000BDE8084000F000BB4FF4800000F0FCFAB2
:100E000000214FF48000F3E70054004070B586B035
:100E10000446868801A80D4600F078FA039A2E4908
:100E200026F03F06B2FBF1F13604360C88B20643D9
:100E3000A6802388294E23F001031B041B0C23806A
:100E40002B68B34223D85B00B2FBF3F39BB2042BB5
:100E500038BF0423013080B22084A3832388AA886A
:100E60009BB243F0010323802388698923F48163C3
:100E700023F002031B040A431B0C13439BB2238081
:100E80002A89AB8913439BB2238106B070BD4BF610
:100E9000FF70EE8886421BBF1920434303EB4303D8
:100EA000B2FBF3F30BBFB2FBF3F39BB29BB243F481
:100EB0008043C3F30B020AB943F001034FF4967267
:100EC0004A434FF47A7192FBF1F2013292B243F449
:100ED00000432284C1E700BF40420F00A08601000A
:100EE00041F28833036000234BF6FF728380038155
:100EF00043814FF48043C28083817047038821B1CE
:100F00009BB243F001030380704723F001031B04ED
:100F10001B0CF8E7838821B19BB243F40063838004
:100F2000704723F400631B041B0CF8E7838821B18E
:100F30009BB243F480538380704723F480531B0497
:100F40001B0CF8E7038821B19BB243F48073038044
:100F5000704723F480731B041B0CF8E7038821B14E
:100F60009BB243F400730380704723F400731B04A7
:100F70001B0CF8E7038821B19BB243F48063038024
:100F8000704723F480631B041B0CF8E7838901F08E
:100F9000FE019BB223F0FE030B43838170478389DC
:100FA00021B19BB243F001038381704723F0010319
:100FB0001B041B0CF8E7038821B19BB243F04003EC
:100FC0000380704723F040031B041B0CF8E7838861
:100FD0009BB212B119438180704723EA0101FAE7FD
:100FE00001827047008AC0B2704722B141F001010E
:100FF00089B20182704701F0FE01F9E7002382B057
:1010000001930190019B19440191019B188880B2C2
:1010100002B07047038831B16FEA43436FEA53432C
:101020009BB203807047C3F30E03FAE70388B1F560
:10103000005F15BF23F400539BB21B0443F400531D
:1010400018BF1B0C03807047038821B19BB243F487
:1010500080530380704723F480531B041B0CF8E774
:101060000388B1F5006F15BF23F400639BB21B0426
:1010700043F4006318BF1B0C03807047FFF7F0BFF9
:10108000038821B19BB243F020030380704723F013
:1010900020031B041B0CF8E7008BC0F307207047EC
:1010A000038821B19BB243F010030380704723F003
:1010B00010031B041B0CF8E7038821B99BB243F013
:1010C00080030380704723F080031B041B0CF8E7A8
:1010D000838BB1F5804F1BBF23F480431B049BB26D
:1010E0001B0C08BF43F4804383837047838A008BC3
:1010F0009BB243EA004321F07F401840431A584214
:1011000058417047838A008B9BB243EA004020F02D
:101110007F407047002382B0009301930B0F019032
:101120000093009B21F07F4153B1019B1433019345
:10113000019B1B68194214BF0120002002B07047B8
:10114000019B090C1833F2E7C94389B281827047C9
:101150008388808A9BB280B2084006D003F4E063A3
:1011600013EA114314BF012000207047C94389B21C
:10117000818270470D4B1A6842F001021A6059686B
:101180000B4A0A405A601A6822F0847222F48032B4
:101190001A601A6822F480221A605A6822F4FE0249
:1011A0005A604FF41F029A60704700BF001002405F
:1011B0000000FFF80C4BB0F5803F1A6822F4803233
:1011C0001A601A6822F480221A6003D0B0F5802FCA
:1011D00005D070471A6842F480321A6070471A6866
:1011E00042F4A022F9E700BF00100240034A13684E
:1011F00023F0F80343EAC00010607047001002407B
:10120000014B1860704700BF00004242034A536818
:1012100023F47C13194301435160704700100240CE
:10122000014B1860704700BF60004242034A536898
:1012300023F0030318435060704700BF00100240C2
:10124000024B586800F00C00704700BF00100240CD
:10125000034A536823F0F00318435060704700BFFF
:1012600000100240034A536823F4E06318435060BF
:10127000704700BF00100240034A536823F46053D4
:1012800043EAC0005060704700100240044B1A78D7
:1012900011B110431870704722EA0000FAE700BF4E
:1012A00009100240014B1860704700BFD80042424D
:1012B000034A536823F4404318435060704700BF0B
:1012C000001002400022064B01281A701A7002D04A
:1012D000042802D070471870704705221A707047B2
:1012E00020100240014B1860704700BF800442424A
:1012F000024A136A18431062704700BF0010024090
:10130000014B1860704700BF3C0442421D4A10B5B3
:10131000536803F00C03042B21D0082B21D01A4B67
:10132000036053681949C3F30313CC5C0368E340BB
:1013300043605468C4F302240C5D23FA04F484600F
:101340005468C4F3C2240C5DE340C3605268C2F326
:10135000813211440A7CB3FBF2F3036110BD0C4BE4
:10136000DEE753685168C3F38343CC0303F1020300
:1013700002D408494B43D3E7516889034CBF024963
:101380000349F7E70010024000127A001400002021
:101390000024F40000093D00044B5A6911B11043C8
:1013A0005861704722EA0000FAE700BF00100240CF
:1013B000044B9A6911B110439861704722EA00000A
:1013C000FAE700BF00100240044BDA6911B1104384
:1013D000D861704722EA0000FAE700BF001002401F
:1013E000044BDA6811B11043D860704722EA00005C
:1013F000FAE700BF00100240044B1A6911B1104314
:101400001861704722EA0000FAE700BF00100240AE
:10141000014B1860704700BF40044242014B186006
:10142000704700BF4C004242014B1870704700BF2C
:10143000071002404209012A074B07D11B6800F040
:101440001F0023FA00F000F001007047022A0CBFD1
:101450001B6A5B6AF3E700BF00100240002307B578
:1014600001933120FFF7E6FF019B01330193019BBC
:10147000B3F5A06F01D00028F3D03120FFF7DAFFD9
:10148000003018BF012003B05DF804FB024A536A24
:1014900043F080735362704700100240034B9B6817
:1014A000184214BF01200020704700BF0010024006
:1014B000014B1870704700BF0A10024008B5214B5D
:1014C00098420BD101214FF48040FFF789FFBDE81E
:1014D000084000214FF48040FFF782BF1A4B98422A
:1014E0000BD101214FF40030FFF786FF00214FF4AC
:1014F0000030BDE80840FFF77FBF144B984208D189
:1015000001214FF48020FFF777FF00214FF4802066
:10151000EFE70F4B984208D101214FF40020FFF76D
:101520006BFF00214FF40020E3E70A4B984208D1FB
:1015300001214FF48010FFF75FFF00214FF480106E
:10154000D7E708BD00380140004400400048004093
:10155000004C00400050004030B50D460446038A60
:101560008A899BB2C98823F440530B430382838941
:10157000A98823F4B05323F00C031B041B0C0B436A
:10158000298987B00B4369890B439BB28381838A86
:101590009BB223F440731343838201A8FFF7B6FE86
:1015A000174A039B0499944218BF19461922A3892C
:1015B0004A4313F4004F2B684FF0640514BF5B00DF
:1015C0009B00B2FBF3F1B1FBF5F3A2891801120401
:1015D00005FB13130BD5DA003232B2FBF5F202F041
:1015E000070242EA00039BB2238107B030BD1B0112
:1015F0003233B3FBF5F303F00F030343F3E700BF0C
:10160000003801404FF416530C220360002342813E
:101610008380C3800381838170470B8810B54C8819
:10162000028A23438C88C98892B223430B4322F455
:10163000706213439BB2038210BD0023038043807A
:101640008380C3807047838921B19BB243F40053E8
:101650008381704723F400531B041B0CF8E701F04F
:101660001F0310B5C1F342140121012C01FA03F14B
:1016700005D10C3003683AB11943016010BD022C4A
:101680000CBF10301430F5E723EA0101F5E7838A37
:101690009BB212B119438182704723EA0101FAE734
:1016A000038A23F00F031B041B0C0382038A9BB2E3
:1016B000194301827047838923F400631B041B0CC8
:1016C000838183899BB2194381817047838921B1CA
:1016D0009BB243F002038381704723F002031B0493
:1016E0001B0CF8E7038A23F020031B041B0C038266
:1016F000038A9BB2194301827047038A21B19BB2CE
:1017000043F480430382704723F480431B041B0C83
:10171000F8E7C1F30801818070478088C0F30800B2
:10172000704783899BB243F0010383817047038B29
:10173000DBB20383038B9BB243EA01210183704731
:10174000038B03F47F430383038B9BB21943018311
:101750007047838A21B19BB243F020038382704794
:1017600023F020031B041B0CF8E7838A21B19BB2F2
:1017700043F010038382704723F010031B041B0CFB
:10178000F8E7838A21B19BB243F008038382704754
:1017900023F008031B041B0CF8E7838931B16FEABF
:1017A00043436FEA53439BB283817047C3F30E03F5
:1017B000FAE7838A21B19BB243F4006383827047C6
:1017C00023F400631B041B0CF8E7838A23F0040353
:1017D0001B041B0C8382838A9BB21943818270474E
:1017E000838A21B19BB243F002038382704723F0C6
:1017F00002031B041B0CF8E70388194214BF0120E5
:1018000000207047C94389B2018070470123C1F3AA
:10181000421210B5012A01F01F0403FA04F30ED19D
:10182000828992B21340028892B26BB10123090AF5
:1018300003FA01F10A4214BF1846002010BD022A23
:101840000CBF028A828AECE7184610BD0B0A012100
:101850009940C94389B20180704700BF30B5048CFC
:1018600042EA031324F001042404240C0484048BAE
:10187000058C24F0F3042404240C1C43114BADB25A
:101880009842A4B241F0010112D003F500639842DE
:101890000ED0B0F1804F0BD0A3F59833984207D00B
:1018A00003F58063984203D003F58063984205D125
:1018B00025F0020529430483018430BD25F00A0583
:1018C000F8E700BF002C014030B5058C120225F06E
:1018D00010052D042D0C0584058B42EA033325F4F5
:1018E00040752D052D0D1D43144B048C9842A4B258
:1018F000ADB212D003F5006398420ED0B0F1804F24
:101900000BD0A3F59833984207D003F58063984233
:1019100003D003F58063984209D124F0200444EAFF
:10192000011444F01004A4B20583048430BD24F0F3
:10193000A00441F010010C43F6E700BF002C014069
:1019400008B5614B98420BD101214FF40060FFF7BD
:1019500047FD00214FF40060BDE80840FFF740BD9F
:10196000B0F1804F09D101210846FFF745FD002164
:101970000120BDE80840FFF73FBD544B984206D117
:1019800001210220FFF738FD00210220F1E7504B32
:10199000984206D101210420FFF72EFD00210420EA
:1019A000E7E74C4B984206D101210820FFF724FDC0
:1019B00000210820DDE7484B984206D10121102084
:1019C000FFF71AFD00211020D3E7444B984206D1BF
:1019D00001212020FFF710FD00212020C9E7404B06
:1019E000984208D101214FF40050FFF7F9FC002183
:1019F0004FF40050B0E73B4B984208D101214FF41F
:101A00000020FFF7EDFC00214FF40020A4E7364B47
:101A1000984208D101214FF48010FFF7E1FC00212A
:101A20004FF4801098E7314B984208D101214FF4D0
:101A30000010FFF7D5FC00214FF400108CE72C4B71
:101A4000984206D101214020FFF7D6FC002140201A
:101A50008FE7284B984206D101218020FFF7CCFC6C
:101A60000021802085E7244B984208D101214FF4C2
:101A70008070FFF7C1FC00214FF4807079E71F4BA5
:101A8000984208D101214FF48030FFF7A9FC0021D2
:101A90004FF4803060E71A4B984208D101214FF48F
:101AA0000030FFF79DFC00214FF4003054E7154B48
:101AB000984208D101214FF48020FFF791FC0021CA
:101AC0004FF4802048E708BD002C0140000400408E
:101AD00000080040000C00400010004000140040CE
:101AE00000340140004C01400050014000540140CE
:101AF00000180040001C0040002000400040014051
:101B00000044014000480140224A038890429BB2B1
:101B100012D002F5006290420ED0B0F1804F0BD08F
:101B2000A2F59832904207D002F58062904203D02D
:101B300002F58062904203D14A8823F07003134378
:101B4000154A904208D002F5806290421FBF23F4EC
:101B50004073CA889BB2134303808B8883850B88AC
:101B600003850C4B98420FD003F5006398420BD0CD
:101B700003F54063984207D003F58063984203D091
:101B800003F58063984201D10B7A03860123838297
:101B9000704700BF002C014000100040038C70B55E
:101BA00023F001031B041B0C0384038C8488028B29
:101BB0000D8822F073021204120C2A4323F0020350
:101BC0000D894E881B0435431B0C2B43144DA4B2C6
:101BD000A8429BB20FD005F50065A8420BD005F5D1
:101BE0004065A84207D005F58065A84203D005F5F9
:101BF0008065A8420ED14D8923F008032B438D88C0
:101C000023F004032B43CE898D8924F4407435439B
:101C10002C43A4B284800283CA888286038470BD68
:101C2000002C0140038C70B523F010031B041B0C27
:101C30000384038C8488028B0D8822F4E64212040C
:101C4000120C42EA052223F020030D894E881B0462
:101C500035431B0C43EA0513114DA4B2A84292B2BE
:101C60009BB203D005F50065A84213D14D8923F03E
:101C7000800343EA05134FF6BF751D408B88CE895C
:101C800045EA03138D8924F44064354344EA85040E
:101C90009BB2A4B284800283CA880287038470BD89
:101CA000002C0140038C70B523F480731B041B0CC3
:101CB0000384038C8288848B0D8824F073042404AD
:101CC000240C2C4323F400730D894E881B043543E8
:101CD0001B0C43EA0523114D92B2A8429BB203D0DC
:101CE00005F50065A84213D14D8923F4006343EA4A
:101CF00005234FF6FF351D408B88CE8945EA032327
:101D00008D8922F44052354342EA05129BB292B2C9
:101D10008280CA8884838287038470BD002C01403E
:101D2000038C70B523F480531B041B0C0384038CB9
:101D30008488828B0D8822F4E6421204120C42EA57
:101D4000052223F400530D894E881B0435431B0CD8
:101D500043EA05330B4DA4B2A84292B29BB203D022
:101D600005F50065A84205D18D8924F4804444EA34
:101D70008514A4B284808283CA88A0F8402003849A
:101D800070BD00BF002C01404A880B8813438A882D
:101D90001343CA8813430A8913434A8913438A8920
:101DA00013439BB2A0F8443070474FF6FF73838013
:101DB00000230380C38043800372704700230380A5
:101DC00043808380C380038143818381C3817047C3
:101DD00000230122038043808280C38003817047F7
:101DE0000023038043808380C380038143818381F8
:101DF0007047038821B19BB243F001030380704711
:101E000023F001031B041B0CF8E7B0F8443039B190
:101E10006FEA43436FEA53439BB2A0F844307047E4
:101E2000C3F30E03F9E7818270470A43A0F8482004
:101E3000704783899BB212B119438181704723EAAD
:101E40000101FAE7FFF7F5BF038923F007031B043D
:101E50001B0C03817047038923F070031B041B0CC8
:101E60001943018103899BB243F007030381704743
:101E700038B50D46602D114604464FF001020ED1D3
:101E8000FFF722FD218921F070010904090C294383
:101E9000218123899BB243F00703238138BDFFF7DB
:101EA000DDFCEFE710B504890A43E4B242EA0323FC
:101EB0001C43A4B2048110BD10B5FFF7F3FF0389E2
:101EC00023F077031B041B0C43F07703038110BD41
:101ED00010B5FFF7E7FF03899BB243F4804303810A
:101EE00010BD018582827047038823F070031B04B4
:101EF0001B0C194301807047038923F070031B04F6
:101F00001B0C19430181704770B50689048B058C41
:101F100024F4407424F0030425F0220526F007067B
:101F200024042D043604240C2D0C42EA0313360C31
:101F300044F480741D43314344F00104ADB2018187
:101F40000483058470BD038B23F070031B041B0CFA
:101F5000194301837047038B23F4E0431B041B0CDC
:101F600043EA012189B201837047838B23F0700318
:101F70001B041B0C194381837047838B23F4E043BC
:101F80001B041B0C43EA012189B28183704703883B
:101F900021B19BB243F080030380704723F080039C
:101FA0001B041B0CF8E7838821B19BB243F00403A8
:101FB0008380704723F004031B041B0CF8E783881D
:101FC00021B19BB243F008038380704723F00803DC
:101FD0001B041B0CF8E7838821B19BB243F001037B
:101FE0008380704723F001031B041B0CF8E7038B6D
:101FF00023F008031B041B0C194301837047038B58
:1020000023F400631B041B0C43EA012189B2018302
:102010007047838B23F008031B041B0C1943818337
:102020007047838B23F400631B041B0C43EA0121DC
:1020300089B281837047038B23F004031B041B0CBC
:10204000194301837047038B23F480631B041B0C2B
:1020500043EA012189B201837047838B23F0040393
:102060001B041B0C194381837047838B23F480630B
:102070001B041B0C43EA012189B281837047038B47
:1020800023F080031B041B0C194301837047038B4F
:10209000C3F30E0343EA012189B201837047838BA6
:1020A00023F080031B041B0C194381837047838B2F
:1020B000C3F30E0343EA012189B281837047038C85
:1020C00023F002031B041B0C194301847047038C8B
:1020D00023F008031B041B0C194301847047038C75
:1020E00023F020031B041B0C43EA011189B2018475
:1020F0007047038C23F080031B041B0C43EA01117F
:1021000089B201847047038C23F400731B041B0CF9
:1021100043EA012189B201847047038C23F40063F0
:102120001B041B0C43EA012189B201847047038C14
:1021300023F400531B041B0C43EA013189B20184D0
:10214000704710B50124038C8C409BB223EA040332
:102150000384038C02FA01F1194389B2018410BD92
:1021600010B50424038C8C409BB223EA040303843F
:10217000038C02FA01F1194389B2018410BD30B514
:102180000125048C8D40A4B224EA050400F1180353
:10219000048421F0080040B94908C85820F07000B4
:1021A000C850C8580243CA5030BD0439C1F34E016B
:1021B000C858120220F4E040C850C85892B2F1E763
:1021C000038821B19BB243F002030380704723F0E0
:1021D00002031B041B0CF8E7038821B19BB243F0F8
:1021E00004030380704723F004031B041B0CF8E76F
:1021F000838821B19BB243F080038380704723F032
:1022000080031B041B0CF8E7038823F008031B045E
:102210001B0C038003889BB219430180704783889D
:1022200023F070031B041B0C838083889BB219432B
:1022300081807047038923F007031B041B0C038173
:1022400003899BB2194301817047038923F08003FE
:102250001B041B0C038103899BB219430181704746
:1022600081847047818570478186704701877047F8
:1022700081877047A0F840107047038B23F00C0350
:102280001B041B0C0383038B9BB219430183704710
:10229000038B23F440631B041B0C0383038B9BB24F
:1022A00043EA012189B201837047F8B50C46498899
:1022B000A2880029B4F800E00CBF02260026012AFB
:1022C0000CBF022701272389BEF1000F0ED1FFF7B3
:1022D000C5FAE188FFF7D1FF314623893A46FFF777
:1022E000F3FAE188BDE8F840FFF7D2BFFFF7ECFA58
:1022F000E188FFF7CDFF314623893A46FFF7AEFA72
:10230000E188BDE8F840FFF7B8BF838B23F00C03EA
:102310001B041B0C8383838B9BB2194381837047FF
:10232000838B23F440631B041B0C8383838B9BB23E
:1023300043EA012189B28183704770B50E880D464A
:102340000B898A880446498836B9FFF787FAE988F5
:10235000BDE87040FFF791BF042E06D1FFF7B4FA35
:10236000E988BDE87040FFF793BF082EED88008C28
:1023700039D120F480700004000C2084A68B208CBE
:10238000B6B226F0F306324342EA0313344A80B26F
:1023900094429BB212D002F5006294420ED0B4F186
:1023A000804F0BD0A2F59832944207D002F580629C
:1023B000944203D002F5806294420ED120F4007260
:1023C00042F4807242EA012292B2A3832946228417
:1023D0002046BDE87040FFF798BF20F420620A4312
:1023E00042F48072F1E720F480500004000C208455
:1023F000A68B1B0326F4407643EA02233605184ACF
:10240000208C360D3343944280B29BB212D002F539
:10241000006294420ED0B4F1804F0BD0A2F59832F6
:10242000944207D002F58062944203D002F58062A4
:1024300094420ED120F4005242F4805242EA01321A
:1024400092B2A383294622842046BDE87040FFF75C
:1024500067BF47F6FF5202400A4342F48052F0E75A
:10246000002C0140038823F440731B041B0C0380E1
:1024700003889BB2194301807047808E80B27047F9
:10248000008F80B27047808F80B27047B0F84000F4
:1024900080B27047808C80B27047008D80B27047E8
:1024A000038A194214BF012000207047C94389B232
:1024B00001827047038A828911EA030092B203D035
:1024C000114214BF012000207047C94389B2018224
:1024D000704700BF40F0BF60024B40F40030D8604E
:1024E000704700BF00ED00E010B5C2780378E2B19C
:1024F000124AD1684278C943C1F30221C1F10404F0
:10250000A2400F24807824FA01F101400A430C49CB
:102510001201C818D2B280F8002303F01F005A0934
:102520000123834041F8223010BD01215A0903F0F4
:102530001F0301FA03F320320149F3E700ED00E045
:1025400000E100E021F0604121F07F01014B0143F7
:102550009960704700ED00E0044B1A6911B1104317
:102560001861704722EA0000FAE700BF00ED00E0C2
:10257000044B04281A680CBF42F0040222F0040243
:102580001A60704710E000E02DE9F74F924C0746C3
:102590002378002B00F0B680FDF79CFF8F4B97F857
:1025A00028801A78009342451CBF01232372B8F19A
:1025B000010F606040F0CA80D7F8189000214846AB
:1025C00006F0EEFC002840F0A480484605F0CAFE64
:1025D0007DA3D3E9002305F019FF0022804B06F00C
:1025E0003FF803F0A9F902460B4679A1D1E90001B1
:1025F00006F036F806F0E2F90146019006F034FAEA
:10260000E66805464FF07C51304606F035FB2169FF
:1026100006F02AFA83460146284606F023FA0146C8
:10262000284606F0DDFB59468246284606F01CFA8D
:102630000146284606F0D4FB019B314683461846E6
:1026400006F012FA0146304606F0CAFB03F0BCF968
:102650000146484606F008FA019B054619463046F1
:1026600006F000FA0146304606F0BAFB03F0ACF97A
:102670000146484606F0F8F95A490646284606F04B
:10268000B7FC002841D15849284606F093FC0028A1
:102690003DD15449304606F0ABFC00283FD15249A9
:1026A000304606F087FC00283BD10021484606F062
:1026B0009FFCD4F814904D49002834D0284606F0E9
:1026C000D3F9D9F8003001465B694846984731464E
:1026D000464806F0C7F9A569014628462B685B699C
:1026E00098473E6A5146304606F0C6FA59460546B6
:1026F000E061304606F0C0FAA56220626062009B8D
:1027000083F8008003B0BDE8F08F364DC1E7364D49
:10271000BFE74FF07E5A0025D3462E46C5E7314E1F
:10272000C3E7314EC1E7304606F09EF9D9F80030D4
:1027300001465B694846984729462C4806F092F9BD
:10274000A6690146336830465B69C9E7B8F1020FF4
:1027500025D10021E06A06F023FC0028CFD0BD6916
:102760000021284606F01CFCA8B90123E56284F884
:10277000303060691E4903685B699847A0691C494D
:1027800003685B6998473B6A03F10042E361226298
:102790006262A362B3E7002384F83030E9E7B8F15E
:1027A000030FACD16069134903685B699847A0695E
:1027B000104903685B6998473B6A03F10042E36193
:1027C00022626362A2629AE7182D4454FB210940F9
:1027D0009A9999999999A93F840800202800002086
:1027E0000080764000005041000050C100000743C7
:1027F0000000B44200003442F8B540F225512748A9
:10280000FFF704F8C8B1264D2448B5F83844B5F8A8
:102810003664FEF782FF0134C4F30904B6B2C7B2CE
:1028200040F225511D48FFF711F8B4421AD1002299
:1028300040F225511948FEF712FF40F22771174860
:10284000FEF7E4FF48B3164CA28E638E92B29BB2A1
:102850009A4210D1BDE8F840002240F227710F489B
:10286000FEF7FDBEB5F838349BB22B4483F83A74BA
:10287000A5F83844E1E7A38E08489BB2234493F8B7
:102880003610FEF746FF40F227710448FEF7DEFFE0
:10289000A38E0133C3F30903A386F8BD00380140BA
:1028A0008408002008B50420FDF7D0FE40B10122C5
:1028B000044B042083F83A28BDE80840FDF7D4BE55
:1028C00008BD00BF8408002004207146084203D0E0
:1028D000EFF3098000F004B8EFF3088000F000B8CF
:1028E00008B500210720FEF76FFD00214FF40060BE
:1028F000FEF75EFD0449054BCA6802F4E06213432B
:10290000CB60BFF34F8FFEE700ED00E00400FA0557
:10291000FEE700BF43680B7043681B0A4B70C38817
:102920008B70C379CB7083680B7183681B0A4B7102
:1029300043898B71C37A0820CB7170470B78436051
:102940004A7843EA022343608A7843EA02434360B9
:10295000CA7843EA026343600B7983604A7943EAA9
:10296000022383608A7943EA02438360CA7943EA97
:1029700002638360082070470048704723B5000851
:102980000048704702B5000830B50B7883804A785C
:1029900043EA02238380D1F802208B1D941D5D1A27
:1029A000AC4204D913F8015B03F8025CF7E7002599
:1029B0008B185D714B1D83600B590A328C181344C0
:1029C000651AAB4204D914F8015B04F8025CF7E71E
:1029D0000025013ACC180A4404F8015CC260CA58C8
:1029E0000433CC181A44651AAA4204D914F8015BBE
:1029F00004F8025CF7E70025013B8C180B4404F84F
:102A0000015C0361A3786578895C1B0443EA0523B4
:102A10000B43E17843EA01634361101D30BD0000C0
:102A200000487047FBB3000800487047DAB300085D
:102A300030B50B7804460371D1F801304A1D581D9A
:102A4000551AA84204D912F8015B02F8025CF7E7B4
:102A500000220B441A710431A16030BD0048704758
:102A6000C7B3000800487047A6B300080048704785
:102A700020B300080048704785B300080B4630B506
:102A800053F8044B251D5A1A954204D913F8012B0B
:102A900003F8022CF7E700230A19D370CB1C43601C
:102AA0004B5D8360517943EA01238360917943EA66
:102AB00001438360D17943EA01638360137AC36081
:102AC000517A43EA0123C360917A43EA0143C36028
:102AD000D27A43EA0263C36004F10C0030BD000007
:102AE00000487047E5B4000800487047C4B40008C7
:102AF000F8B50446037900200D4604260B70487093
:102B00008870C8702379471CC0B2984205EB060153
:102B100008DAA36900011A5818441268904706445D
:102B20003846EFE7E369301DAB55E3691B0A4B708C
:102B3000E38B8B70E37FCB70F8BD000000487047DB
:102B40006EB40008004870474DB4000870B50446E4
:102B500004300D46FFF7CCFF002294F824302B54AC
:102B60002B1804305A709A70DA702B1894F824607D
:102B7000511CD2B2B242A3EB050003F104030FDAF9
:102B8000E06A50F82220100A03F8042C03F8030C22
:102B9000100C120E03F8012C03F8020C0A46E5E7AC
:102BA00070BD000000487047A9B400080048704795
:102BB00088B40008034630B50A7801F11004426079
:102BC000487842EA00225A60887842EA00425A6015
:102BD000C87842EA00625A600A799A60487942EA03
:102BE00000229A60887942EA00429A60C87942EAF3
:102BF00000629A600A7ADA60487A42EA0022DA6071
:102C0000887A42EA0042DA60C87A42EA0062DA6010
:102C1000CA6802F11000651AA84204D914F8015BD1
:102C200004F8025CF7E700240A44D4730F311961F9
:102C300030BD00000048704752B50008004870479A
:102C400031B50008004870476DB300080048704770
:102C50004CB3000890F8F4087047C06B7047000050
:102C6000004870476DB30008004870474CB3000837
:102C7000436870B50B70436805461B0A4B70C388E8
:102C80000C468B70C379CB7083680B7183681B0A09
:102C90004B7143898B71C37ACB71C3680B72C36864
:102CA0001B0A4B72C3898B72C37BCB72006907F01E
:102CB000C1FF0646E0600246296904F1100007F0F2
:102CC00043FC06F1100070BD70B5054640680C4627
:102CD00007F0B0FF0646204640F8046B69683246AC
:102CE00007F032FCAB68A1190B71AB6806F10C0060
:102CF0001B0A4B716B898B71EB7ACB71EB680B7292
:102D0000EB681B0A4B72EB898B72EB7BCB7270BD4D
:102D10002DE9F843037907460B7000231A460C4649
:102D20004B708B70CB7004313D79501CD2B2AA42EB
:102D3000A1EB040301F104010FDAFB6853F8223020
:102D40001A0A01F8043C01F8032C1A0C1B0E01F8B6
:102D5000022C01F8013C0246E6E73A7CE118E25415
:102D6000002204334A708A70CA702344387C511C94
:102D7000D2B28242A3EB040603F104030FDAB8696E
:102D800050F82220100A03F8042C03F8030C100C4E
:102D9000120E03F8012C03F8020C0A46E6E73B7F0B
:102DA000A219A3550023043653709370D370DDB27B
:102DB00003F101093B7F9D4211DA7B6A53F825003C
:102DC00007F038FF8046A0517B6A0436024653F86C
:102DD0002510A01907F0B8FB46444B46E7E73046FC
:102DE000BDE8F88370B5037906460B7080680D4620
:102DF00007F020FF0446C5F801000246B168681DCF
:102E000007F0A2FB601D70BD83882DE9F0410B70B7
:102E1000838805461B0A4B7080680C4607F00AFF42
:102E2000C4F802000246A9680746A01D07F08CFB03
:102E3000E86807F0FFFE07F1060844F808000A37C3
:102E40000246E9680646E01907F07EFB286907F0AC
:102E5000F1FE3E440746A051043602462969A019F6
:102E600007F072FB6B693E44A3551A0A3444627042
:102E70001A0C1B0EA270E370301DBDE8F081F8B58E
:102E80000E78037904469E420D4604DDB100C06809
:102E900007F022FCE060002126712A1D2379481CDE
:102EA000C9B29942A2EB050602F1040213DA12F844
:102EB000023C12F8036C1B0443EA062312F8046C6C
:102EC000334312F8016C43EA0663E668A36046F8F0
:102ED00021300146E2E7AF5D237C9F4204DDB9006B
:102EE000A06907F0F9FBA0610022331D27742B4471
:102EF000D1B2501C227C5E1B914203F1040313DA11
:102F000013F8022C13F8036C120442EA062213F899
:102F1000046C324313F8016C42EA0662A6696261EE
:102F200046F821200246E3E7AF5D237F9F4204DDA0
:102F3000B900606A07F0D0FB6062002127770F4676
:102F4000301D237FCEB29E4219DA55F800E0031DF2
:102F5000EA180EEB0300A2EB050E704504D912F837
:102F600001EB02F802ECF6E72A1802F8017C013BBB
:102F7000626A2B442362013142F82630E1E7F8BD52
:102F80002DE9F0470D78037904469D420F4604DD94
:102F90002901806907F0A0FBA061002304262571A8
:102FA00004F1080804F1180ADDB203F101092379DC
:102FB000B9199D420FDA4046FFF760FD4246A3690A
:102FC000064403EB051352F8041B524543F8041B57
:102FD000F9D14B46E8E7BB5D301DE3614A7843EA2F
:102FE0000223E3618A7843EA0243E361CA7843EA51
:102FF0000263E361BDE8F087F8B5044604300D468E
:10300000FFF7BEFF94F824302F5C06469F4204DD94
:10301000B900E06A07F060FBE0620022331D84F82B
:1030200024702B44D1B2561C94F82420581B914292
:1030300003F1040313DA13F8022C13F8030C12043F
:1030400042EA002213F8040C024313F8010C42EA8E
:103050000062E06AA26240F821203246E2E7F8BD51
:103060002DE9F043632985B004460D4603DD90F851
:10307000F468002E74D0136804F21F411B681046D8
:103080009847FF2284F81824FE2283B284F819247A
:10309000C2B2C0F3072084F81B041044C04384F874
:1030A0001A240521002284F81D5445F3072584F8CD
:1030B0001C0484F81E54981D04F21D45814204DC52
:1030C00015F8016B01313244F8E7D24303F10807E8
:1030D0000733BFB29BB22344B7F5806F83F818243F
:1030E0003E462ED84FF000081F4DDFF8889004F5BB
:1030F0008364474534DD6B8EAA8E013392B2C3F3ED
:1031000009039342F7D06B8EAA8E013392B2C3F3B8
:103110000903934212D06B8E14F808109BB272B65A
:10312000EA180133C3F3090382F836106B8662B6DE
:10313000012240F227714846FEF791FA08F1010892
:10314000D7E70A4B01AA019303238DF80830084BF7
:1031500007210393236820461B6898474FF0FF36EA
:10316000304605B0BDE8F0838408002054B2000862
:1031700014B400080038014038B5C1F3C7540546FF
:103180000A4608460CB104F5607400212970697084
:10319000A9705101E970D1102971D112C2F3C34253
:1031A00042EA04126971AA710021C4F3071405F000
:1031B00001FF10B9EC71082038BD64F07F03EB719A
:1031C000F9E770B5054604300E46FFF751FDA969D1
:1031D00004463018FFF7D0FF0444E9693019FFF7BF
:1031E000CBFF0444296A3019FFF7C6FF0444696A1B
:1031F0003019FFF7C1FF95F82830204433540130CF
:1032000070BD10B5C3785B090B60027943EAC20355
:103210000B60427943EAC2220A608379DB0403F43B
:10322000F00313430B60C2798479120102F4FE6249
:1032300052EA14121EBFA2F5607243EAC2530B6039
:10324000C3790A681B0603F0004313430B60082090
:1032500010BD70B5054604300E46FFF7ABFC05F116
:10326000180104463018FFF7CCFF044405F11C0197
:103270003019FFF7C6FF044405F120013019FFF7AC
:10328000C0FF044405F124013019FFF7BAFF2044C0
:10329000335C013085F8283070BD70B5054600F10B
:1032A0000C042046FFF7D5FFAB6B2046BDE870400D
:1032B0001847C36810B41A6814680A46816818462B
:1032C000234610BC184700002DE9F04100242B4B89
:1032D00086B0074688464FF480400121A3F8364463
:1032E000A3F838449C865C86FEF762F84FF40073BE
:1032F0000326ADF804301823214D01A928468DF886
:1033000007308DF80660FDF78AFC4FF48063ADF856
:103310000430042328460DEB030105F540558DF8D4
:1033200007308DF80660FDF77AFC28460121FEF78C
:103330008AF90C2302A92846ADF81230CDF808808E
:10334000ADF80C40ADF80E40ADF81040ADF81440AB
:10335000FEF702F92246284640F22771FEF77FF970
:103360002846012240F22551FEF779F920223846FD
:10337000044B5A6006B0BDE8F08100BF840800200D
:103380000008014000E100E01FB5084B01AA0193CD
:1033900000230293039303680A211B68044698479D
:1033A000FDF798F8E06004B010BD00BF24B200083B
:1033B00000222DE9F04105464FF48067294B86B085
:1033C0000093294BADF804200293039304930592D4
:1033D00000F6180400F67C062368BBB19A685868AA
:1033E000ADF804201A68036802929B689847236826
:1033F000039058680368DB68984721682B6804903D
:1034000005971B686A460969284698470434B44200
:10341000E2D14FF4806705F50E662068C8B14368B5
:10342000ADF804308368029303689B689847039063
:1034300020680368DB6898472B6804902068D3F8FD
:103440000080036805975B6898476A4601462846EE
:10345000C0470434A642E0D1012385F8F43806B011
:10346000BDE8F0813CB200084CB400087FB51C4BAD
:103470000D4601930023044602930393FDF72AF8B7
:1034800029464FF47A75E268861A01A8FFF756FAC2
:10349000B6FBF5F2029B134405FB12620293114E38
:1034A000039B06FB02320392FDF714F8B0FBF5F321
:1034B000029A0399013AD21A22610B4A05FB1303BF
:1034C0000A44214606FB132304F1100041F8143F7F
:1034D00001F014FAFCF7FEFFC4F8FC0804B070BD5C
:1034E00024B2000840420F0000CA9A3B2DE9F8437D
:1034F0000446FCF7EFFF42F6F822D4F8FC38054604
:10350000C31A934284BF002384F8F438D4F8E03817
:1035100033B1D4F8003983423CBF0023C4F8E0380B
:1035200000277A4E04F11808B6F83824B6F8363475
:1035300092B29BB29A4200F0E38072B6B6F836348B
:103540009BB2334493F83A24B6F83634D2B20133FE
:10355000C3F30903A6F8363462B6D4F8F038D4F8C9
:10356000E0981344B9F1070FC4F8F03811D1D4F83A
:10357000EC38591C2344C4F8EC181A76D4F8E43813
:10358000013BC4F8E438002BCED10823C4F8E0385E
:10359000CAE7B9F1000F14D1FF2A07D10123C4F8FB
:1035A000E03805F11403C4F80039BDE7FCF792FFD9
:1035B000401B0528B8D984F8F4986FF00100BDE8E5
:1035C000F883B9F1010F0DD1FE2A01D10223DDE705
:1035D00094F8F438C4F8E078002BA5D12046FFF722
:1035E000D3FEA1E7B9F1020F09D10323C4F8E428FF
:1035F000C4F8EC78C4F8E038C4F8F02894E7B9F1DE
:10360000030F07D1D4F8E43803EB0222C4F8E4280E
:103610000423BBE7B9F1040F0BD15A42D2B2DBB29B
:1036200058BF5342FF2B01D10523AFE7C4F8E07820
:103630007AE7B9F1050F03D1C4F8E8280623D9E7E2
:10364000B9F1060F0BD1D4F8E83803EB02220723B7
:10365000C4F8E828C4F8E038D4F8E43893E7B9F1BE
:10366000080F7FF461AF5A42D2B2DBB258BF534267
:10367000FF2BC4F8E0787FF457AFD4F8E8386BB983
:103680002046FFF781FE2046FFF792FEC4F8F85867
:10369000C4F8FC584FF0FF30BDE8F8830A2B04D182
:1036A00041462046FFF7E2FE3EE7062B08D14146A1
:1036B00004F60810FFF7E3FB012384F8043933E72D
:1036C0000B2B02D184F8F4782EE704EB8303D3F8B4
:1036D000EC0600283FF428AF036841461B68984772
:1036E00022E740F6C412D4F8F838EB1A934204D912
:1036F0002046FFF749FEC4F8F8580020BDE8F883DB
:1037000094F8F4080028ECD1BDE8F8838408002080
:103710002DE9F04FADF5397DFCF7ECFEFCF798FE96
:103720000121C248FDF70EFBFCF758FEFCF701FE35
:10373000FCF726FEFCF7BAFD002341F21C12BC4C3C
:10374000A35004F58952136041F22812A35041F2AC
:103750002412A35004F63C0202F6780151F8040F3B
:10376000002840F08F83B34803F21E2104EB81014F
:1037700000F174056433C1F84058836702F6140100
:103780000846002350F8045F002D40F08083A948CC
:1037900003F2062504EB850500F1B4067D33C5F878
:1037A0003C68C0F8BC30C0F8C020002351F8040FBA
:1037B000002840F071839F4903F2062004EB80004B
:1037C00001F1C8057D33C0F83C58C1F8D030C1F8CC
:1037D000D4204FF00003042784F83A38964B4FF476
:1037E0007A70E360954B41F6F5662361FCF756FE6F
:1037F000934B944A012100971CA801F020F84FF444
:103800000073229340F29153209303238E4D009333
:103810008E4A8B4B012136A82395219601F00FF893
:1038200040F221733B9301234FF480780093884A40
:10383000884B022150A8CDF8F0803D953A9600F0D3
:10384000FEFF012303934FF40043834E834A069601
:103850008DE80C00CDF81480049602924FF480435A
:103860004FF4005150A800F0F0FF4FF01803DFF8BC
:103870000C92DFF80CA2DFF80C82ADF88831784AA0
:10388000784B794950A8CDF80490CDF800A000F00D
:10389000EEFF764B764A022100976AA8CDF8A48104
:1038A00000F0CDFF02234FF0100B05934FF480631F
:1038B0008DE840082A460695049503930296202336
:1038C00039466AA800F0C1FF664B654A66496AA896
:1038D000CDF80490CDF800A0ADF8F0B100F0C7FF2E
:1038E0004FF08043634A0221009784A8CDF80C82F0
:1038F00000F0A5FF4FF480434FF0080B03934FF403
:1039000000532A46069604950295019300954FF4BC
:1039100080534FF4006184A8CDF814B000F095FFF7
:1039200014234F4AADF858324F494E4B84A8CDF876
:103930000490CDF800A000F09AFF464B4E4A0221B9
:1039400000979EA8CDF8748200F079FF4FF40063D1
:1039500005934FF400432A46069604950296019378
:1039600000964FF480534FF400419EA8CDF80CB060
:1039700000F06BFF1C233A4A3B49ADF8C0329EA8C9
:10398000384BCDF80490CDF800A000F070FF1CA8D3
:10399000CDF8DC8200F0BEFB03686061DB6898470D
:1039A00036A800F0B7FB0368A061DB6898476AA8F7
:1039B00000F0B0FB1F4D0368C5F8DC00DB689847DA
:1039C00050A800F0A7FB0368C5F8E000DB68984743
:1039D00084A800F09FFB0368C5F8E400DB68984703
:1039E0009EA800F097FB0368C5F8E800DB689847DD
:1039F0000C2000F04BFF4FF0010385F8F43005F583
:103A00008E73C5F808310323C5F818011820C5F8CE
:103A10002431C5F8283185F8103100F037FF4FF018
:103A2000010385F8343105F5AE732DE00002300056
:103A3000840800207C1900207B142E3EEC51383D78
:103A40000008004062B50008000C01406DB5000898
:103A500079B50008002C0140000801400010014029
:103A60000080BB4500007A450000C84400040040C7
:103A700085B5000890B500089AB5000800002041FF
:103A8000000020420AD7233DC5F848310623C5F877
:103A90005801606985F85031C5F86431C5F868315E
:103AA00003689D495B699847A0699B4903689B4CE3
:103AB0005B699847D5F8E00000210368984E5B6980
:103AC0009847D5F8DC00002103685B699847D5F872
:103AD000E800002103685B699847D5F8E4000021FD
:103AE000036800255B699847FCF7F4FC312D074615
:103AF000D4BF6069A069002203683146D3F81C80F6
:103B00000123C047FCF7E6FCC01B1328FAD9013596
:103B1000642DE9D1FF20FCF701FCE0684FF07C51F7
:103B200005F0AAF804F01EFC02460B4604F06EFCF9
:103B300002460B4604F0B8FA02F0DAF804F03EFF51
:103B4000784B10AD0C900FCB85E80F00012323704C
:103B50000024724DFCF7BEFC3222631C0E9394FBD2
:103B6000F2F302FB134409900CB9FCF7F5FB6E4B22
:103B700068691E7803683246DC6969490123A047F9
:103B80008346A869324603686549DC690123A0477A
:103B9000664C8146D4F85831C3F800B058602B7A8F
:103BA000002B40F07E816B68099A03F5FA739A4204
:103BB000C0F09581D4F8E0000021036800275B691C
:103BC0009847D4F8DC00002103685B699847D4F873
:103BD000E400002103685B699847D4F8E8000021FD
:103BE00003685B699847D4F8E000324603684C49A3
:103BF000D3F81C803B46C0478246D4F8DC003246EE
:103C000003684749D3F81C803B46C0470A90D4F864
:103C1000E400324603684249D3F81C803B46C04763
:103C20008046D4F8E800324603683D49DB699E4689
:103C30003B467646B047D4F858310A9AC3F810800C
:103C40005861C3F808A0DA601790394948461592C0
:103C5000CDF85880CDF850A004F004FF59461890D4
:103C6000334804F0FFFE32491990584604F0FCFE38
:103C70002F491A9009F1004004F0F4FE00230024BB
:103C800098461B900B930A9318AE56F8240004F044
:103C900069FB1FA3D3E9002304F0B8FB0022254BE6
:103CA00004F0DEFC04F08AFE10AB53F824A046F8C2
:103CB0002400514604F0D8FE074601F09BFF14ABE8
:103CC00053F824900146484604F0D6FF014640468A
:103CD00004F0CAFE8046384601F0CCFF0146484653
:103CE00004F0CAFF01460A9804F0BCFEA31E012B93
:103CF0000A9000F21381384604F034FB04A3D3E9A0
:103D0000002304F0D1F904F059FE834614E000BF0B
:103D1000182D4454FB21094000000743840800206B
:103D20000BD7A33C3CB30008B41900207C19002039
:103D30000000B44200806640504601F09BFF0646FA
:103D4000584601F097FF2B6931460F900C980D9360
:103D500004F092FF0F9A06460D99104604F08CFF6E
:103D60000146304604F080FE0646504601F042FF10
:103D70008246584601F03EFF51460F900C9804F0E1
:103D80007BFF0F9B82460D99184604F075FF014694
:103D9000504604F069FE31468346304604F06CFF1D
:103DA00059468246584604F067FF0146504604F0E3
:103DB0005BFE01F0FBFF8246384604F0D3FA5CA3B9
:103DC000D3E9002304F070F904F0F8FD0D9001F040
:103DD00011FF0D9B0746184601F04CFF51460D9010
:103DE00006F1004004F0FCFF394604F045FF51465F
:103DF0000646584604F0F4FF0D9B0134194604F0C2
:103E00003BFF0146304604F02FFE394604F034FFF4
:103E1000514604F0E5FF494604F02EFF01460B9899
:103E200004F022FE042C0B907FF42EAF4FF07A5159
:103E3000404604F021FF404E4FF07A51D6F8184129
:103E400020600A9804F018FF4FF07A5160600B98D8
:103E500004F012FF06F1EC01A06006F1B400FFF7D8
:103E600028FA06F5967106F1C800FFF722FA3348E2
:103E7000FFF73CFBFCF72EFB099BC01A14284FD917
:103E80000E9C67E60133192B7FF468AC76E40133AE
:103E9000192B7FF477AC88E40133192B7FF486ACBF
:103EA00097E4A86903689B6998478046484605F0EF
:103EB000BFF80746404605F0BBF887427FF473AE73
:103EC000686903689B6998478046584605F0B0F8D2
:103ED0000746404605F0ACF887427FF464AE002305
:103EE000D4F8E0002B720368E9695B699847D4F85D
:103EF000DC00296A036801275B699847D4F8E4006D
:103F0000696A03685B699847D4F8E800A96A03689E
:103F10005B6998470220FCF7C1FA64E6BB460BE7F1
:103F2000FCF7D8FA099BC01A1328A8E7AFF3008062
:103F3000182D4454FB21F93F7C190020C0100020AB
:103F400070B5654B654C0120C4F83C3800F09AFC14
:103F50004FF4E1310546FFF7B7F94FF4E13341F291
:103F60003012C4F844380023A35441F244125C498F
:103F7000C4F84058A15041F24812A35441F25012E3
:103F8000A35041F25412A35441F25C1241F2681161
:103F9000A35004F58B52137004F63C0263501C4688
:103FA0001146D0180433642BC0F81848F9D1002307
:103FB0001846CA180433642BC2F87C08F9D10023D0
:103FC0001846CA180133B3F5806F1076F9D1002373
:103FD0001A46C8180133B3F5806F80F81824F8D159
:103FE000404B4149414C59674149424DC3F880100B
:103FF00041494248C3F884100021C3F89810C3F81F
:104000009C10C3F8A010C3F8A4103D493D4EC3F85E
:10401000AC100121C3F8B0103B49C3F81C51D9675B
:104020003A49C3F82041C3F83011C3F82421C3F83A
:104030002821C3F85C51C3F86041C3F86421C3F878
:104040006821C3F88820C3F88C20C3F89020C3F8F7
:10405000944083F8A820C3F82C0183F83421C3F8D6
:104060003851C3F83C41C3F84021C3F84421C3F898
:104070004821C3F84C2183F85021C3F8F01024499B
:10408000C3F8C860C3F8B41003F5967603F1EC01E9
:1040900083F8F42083F81021C3F85821C3F8CC60CA
:1040A000C3F8D820C3F8EC00C3F8F850C3F8FC40BC
:1040B000C3F80021C3F80421C3F80821C3F80C2178
:1040C000C3F81821C3F8B810C3F8C42070BD28463F
:1040D00000F0E0FB00F0C8FCFCB2000884080020FF
:1040E0006CB200087C19002010B300084CB4000822
:1040F000E4B2000884B20008CCB20008B4B20008F0
:1041000089250008ADB50008A5B500089CB20008D7
:10411000B3B5000838B503680546012B03D0022B60
:1041200009D0002038BD4C2000F0ACFB29460446E5
:1041300000F0DEF806E0302000F0A4FB294604463B
:1041400000F01AFA204638BD204600F0A3FB00F02C
:104150008BFCF9E7014A416002607047C4B5000872
:10416000704710B5044600F095FB204610BD00BF17
:1041700010B50446084604F05BFFA06010BD08B50A
:10418000806804F025FD08BD43685868704710B585
:104190000446034B0360FFF7E3FF204610BD00BF5A
:1041A000FCB5000810B50446FFF7F1FF204600F00B
:1041B00071FB204610BD70B5436894B09A690446FF
:1041C000ADF8002018228DF803200322D869694633
:1041D0008DF80220FCF723FD4EF65F23ADF8083082
:1041E00017230025ADF80430636801A99868ADF87D
:1041F0000A50ADF80650FDF787FC10A8FDF7DEFD6C
:104200006023ADF840300123ADF842306368ADF86B
:104210004650DA68ADF84850013A032A64D8DFE81E
:1042200002F002454F59986810A9FDF7B7FC636882
:1042300008219868FDF7DBFE636801219868FDF7A7
:10424000A6FE636801219868FDF7DFFD6368274ECD
:1042500098680121FDF7CDFD96E8070004AD07AB96
:104260000C3685E8070096E8070083E8070000227F
:104270000A920B920D920E922A4603CAE0621068CF
:104280002163606303CBE06318680AAB2164606458
:1042900003CBE06100200DAB2162606203CBE060E4
:1042A000002060610120216114B070BD10A99868E0
:1042B000FDF7B8FC636808219868FDF7A0FEBBE72E
:1042C00010A99868FDF7EEFC636808219868FDF76F
:1042D000A0FEB1E710A99868FDF722FD63680821E8
:1042E0009868FDF79EFEA7E70020DDE71CB60008F2
:1042F00010B50446FFF72EFF014B2046236010BD8A
:10430000FCB50008F8B505460446002600270369F9
:104310004361C368036145F80C1F2B462968186A7E
:1043200004F0AAFC0146304604F09EFB022F05F182
:104330000405064608D0E968286B04F09DFC014698
:10434000304604F08FFB06460137032FE5D1236A80
:1043500030466362E369E6612362F8BD10B5044646
:10436000806804F035FC01462046FFF7CBFF04F0DF
:104370005FFE61684C690A69131BB422434393FBD7
:10438000F2F3234472B6CA68013A032A06D8DFE87A
:1043900002F002090D118A689BB2938662B604F09E
:1043A00017FC10BD8A689BB21387F7E78A689BB237
:1043B0009387F3E78A689BB2A2F84030EEE700BF2C
:1043C0000120704781607047806870474368586873
:1043D000704710B50446034B0360FFF7C1FE20464B
:1043E00010BD00BF50B6000810B50446FFF7F1FF3E
:1043F000204600F04FFA204610BD70B50325102668
:104400000446436888B01A6A586A6946ADF80020C5
:104410008DF803608DF80250FCF701FC8DF8036005
:104420001426636869461A6B586BADF800208DF846
:104430000250FCF7F4FB636869469A6AD86AADF8E3
:1044400000208DF802508DF80360FCF7E8FB6368EC
:1044500069469A6BD86BADF800208DF802508DF844
:104460000360FCF7DCFB636869461A6C586CADF8B6
:10447000002018228DF802508DF80320FCF7CFFBA6
:104480006368002598683B4B01A998420CBF47F22E
:104490007E0343F63F03ADF80450ADF80830ADF8A5
:1044A0000A50ADF80650FDF72FFB04A8FDF786FC77
:1044B0006023ADF810300123ADF812306368ADF819
:1044C0001650DA68ADF81850013A032A4FD8DFE8E1
:1044D00002F002303A44986804A9FDF75FFB636874
:1044E00008219868FDF783FD636801219868FDF74E
:1044F0004EFD636801219868FDF787FC6368012120
:104500009868FDF776FC63680120B3F848202273B1
:104510000022E262A2625A6E22611A6D62615A6DD5
:10452000A2619A6DE261DA6D1B6E2262636208B06D
:1045300070BD04A99868FDF775FB63680821986849
:10454000FDF75DFDD0E704A99868FDF7ABFB636854
:1045500008219868FDF75DFDC6E704A99868FDF796
:10456000DFFB636808219868FDF75BFDBCE700206E
:10457000DDE700BF002C014010B50446FFF7EAFD5F
:10458000014B2046236010BD50B6000838B50546E3
:10459000144643684AB9198C586AFCF7AEFB6B683D
:1045A000198E586BFCF7A7FB1DE043F63F04A142B0
:1045B000A8BF2146234CD86A8C42B8BF0C46198D3F
:1045C000FCF799FB6B68198FD86BFCF794FB002CF8
:1045D00018DD6B68198C586AFCF78DFB6B68198EB7
:1045E000586BFCF78AFB6A6817499368D2688B425C
:1045F00002F1FF3208BF6400032A20D8DFE802F08E
:10460000050C12181BD06B68C5E7002CB8BF6442BC
:10461000A4B29C86012038BD002CB8BF6442A4B26D
:104620001C87F7E7002CB8BF6442A4B29C87F1E76F
:10463000002CB8BF6442A4B2A3F84040EAE70020CF
:1046400038BD00BFC1C7FFFF002C01400173704798
:104650002DE9F0410446384D4FF400312846FCF76F
:1046600059FD0028F8D101213348FCF76BFC334E8B
:10467000314D31462846FCF739FD0028F9D0217B21
:104680000122490001F0FE012B48FCF7AEFC2C4D45
:10469000294C29462046FCF729FD0028F9D00121A4
:1046A0002548FCF767FC274D234C29462046FCF79C
:1046B0001DFD0028F9D02048FCF794FC0121064696
:1046C0001D48FCF757FC1F4D1B4C29462046FCF7A4
:1046D0000DFD0028F9D01848FCF784FC01210446A0
:1046E0001548FCF747FC174F134D39462846FCF791
:1046F000FDFC0028F9D01048FCF774FC00210546A9
:104700000D48FCF737FC01210B48FCF727FCDFF8CC
:104710003480094F41463846FCF7E8FC0028F9D0C0
:104720000548FCF75FFC240444EA066444EA0524D7
:104730002043BDE8F08100BF0054004001000300A9
:1047400002000300400003002DE9F84304461F4621
:104750001046904604F086F93946064604F08CFA75
:10476000E16A04F081F9656AE0622946814604F055
:104770003FFC08B1E56207E005F1004529464846DF
:1047800004F018FC0028F5D16169404604F074FA81
:10479000A1690546304604F06FFA0146284604F048
:1047A00063F9E16A0546E06904F066FA01462846C5
:1047B00004F05AF9A16A0546304604F053F9394627
:1047C00004F00EFB216A04F057FA0146284604F073
:1047D0004BF9A662BDE8F8832DE9F041054688460D
:1047E0001F461AB386682846FFF732FF04F0F0F937
:1047F0000F4904F041FA296904F03EFA04462B7B84
:10480000324603F0FB03102B08BF00F1004443467F
:1048100021462846FFF798FF04F00AFC3A46014675
:104820002846FFF7B3FE2046BDE8F0810026DAE710
:10483000DA6FF53E0220704700220260704710B523
:1048400080E80E00029BC36010BD8362009B016282
:10485000C362019B42620363029B4363039B8363C6
:10486000049BC363059B0364069B43647047836595
:10487000009B0165C365019B4265036670470000AC
:10488000FEE7FEE705F0AEBB0846704705F0AABBA1
:104890000846704705F0AEBB05F0ACBB70477047EB
:1048A0007047054B0246196809B904491960186830
:1048B00002441A60704700BFE81A0020601B002005
:1048C000FEE738B5044C054DAC4204D054F8043B27
:1048D0000BB19847F8E738BD780800208008002021
:1048E00038B5044C044DAC4203D054F8043B98470F
:1048F000F9E738BD800800208008002030B50D6839
:10490000044C0268B5FBF4F31A4404FB1353026031
:104910000B6030BD00CA9A3B064A10B591FBF2F31A
:10492000036002FB1313014641F8043FFFF7E6FF63
:1049300010BD00BF00CA9A3B03680A6810B5134453
:104940004A68014603604368134441F8043FFFF797
:10495000D5FF10BD03680A6810B59B1A4A68014666
:10496000036043689B1A41F8043FFFF7C7FF10BD7F
:1049700070B500241026036884B0154602961268AC
:104980009E6900946B468DF804400394B0479DF8EF
:10499000043003F00603062B09BF01202046009BCC
:1049A0002B6004B070BD00BF009890420CBF062081
:1049B0000120704710B50446024B036000F034FD3F
:1049C000204610BDC0B6000810B50446044B036075
:1049D00000F02AFD2046082100F0C0F9204610BD55
:1049E000C0B6000838B515461C4600F021FD20B1C0
:1049F000082206232560E260237138BD2DE9F041CD
:104A000017461C4606460D4600F012FD08B9032C59
:104A100001D9BDE8F0812B683A4631462846BDE809
:104A2000F0415B69184700BFF0B583B0089D0A9953
:104A300017468D4206460B9C0BD01946304600F0B7
:104A4000F7FC18B1012325602771A371002003B082
:104A5000F0BD0999019300F0EBFC18B100206771DB
:104A600003B0F0BD019BE8E71EB400F091F81EBC56
:104A700005F080F8F0B5027883B0472A0D461F464E
:104A80001ED00023274C0193236820469B6898473B
:104A900080B10226019B1B6801932B6821462846A2
:104AA0001C6901AA0123A04730B13046019B3B603D
:104AB00003B0F0BD0126F0E70646304603B0F0BD76
:104AC00043784E2BDDD18378552BDAD1C378432B35
:104AD00019D0C378432BD4D10379432BD1D1437957
:104AE0002B2BCED183792B2BCBD1C379012BC8D8DB
:104AF00004D050F8204C58300190C5E750F8200CF5
:104B000050F8784CF8E70379462BE2D143794F2BE4
:104B1000DFD18379522BDCD1C379002BD9D101931A
:104B2000014CB1E700B70008F8B6000810B504461C
:104B300000F06AF82378A4F12002472B04D08368A0
:104B400023BB8260012010BD63784E2BF7D1A37880
:104B5000552BF4D1E378432BF1D12379432BEED1BC
:104B600063792B2BEBD1A3792B2BE8D1E379012BA4
:104B7000E5D854F8043C0133012B44F8043CE1D15E
:104B8000836844F8083C8260012010BD00F024FCDA
:104B900008B500F039F8836883B393F82020472ADA
:104BA00004D00022826003F1200008BD93F8212088
:104BB0004E2AF6D193F82220552AF2D193F82320D9
:104BC000432AEED193F82420432AEAD193F82520F2
:104BD0002B2AE6D193F826202B2AE2D193F827201E
:104BE000012ADED8DA69013ADA61002ADBD1002233
:104BF000996981609A6103F1200008BD00F0ECFB27
:104C000000487047F01A002000487047F01A002052
:104C1000704700BF00487047E4B6000810B504466E
:104C2000042100F09BF8204610BD00BF10B50446DB
:104C3000024B0360FFF7BEFE204610BDD4B700084C
:104C400010B50446044B0360FFF7B4FE20460C2168
:104C500000F084F8204610BDD4B7000870B582B0CB
:104C6000069C0D469442064609D0B068294606685F
:104C70000694346AA44602B0BDE870406047194605
:104C80000192009300F0D4FB009B019A0028ECD025
:104C9000062002B070BD00BF2DE9F04F894681B0FB
:104CA00019461D46164607460A9CDDF82CB0DDF86D
:104CB00030A0DDF8348000F0BBFB88B1B9F1000F03
:104CC000C8F8004088F804601EDB4C44A2450CBFC5
:104CD0000624012488F80640002001B0BDE8F08FCA
:104CE000544518D0B8682B460568CDF83480CDF807
:104CF00030A0CDF82CB00A94EC6932464946A4465F
:104D000001B0BDE8F04F604719F1020FE4D1012373
:104D100088F80630E0E75946384600F089FB00285D
:104D2000E0D0002088F8056001B0BDE8F08F00BF3A
:104D30002DE9F04107460C4615461E46FFF752FE88
:104D400008B1BDE8F081B868334606682146B46909
:104D50002A46A446BDE8F041604700BFFFF79ABD70
:104D60005028F8B554D000F00F040C2C4ED8DFE8D2
:104D700004F007394907174D4D4D4D1F1B0717000C
:104D8000154655F8044B44B100F07006102E08BFCC
:104D9000114602060C4448BF24681C602846F8BD32
:104DA000154655F8084BEEE7154635F9024BEAE78C
:104DB00000241546274615F801EB0EF07F06BE408D
:104DC0001EF0800F44EA060407F10707F3D11F2FF6
:104DD000D9D81EF0400FD6D04FF0FF3606FA07F7AD
:104DE0003C43D1E700241546274615F801EB0EF0A9
:104DF0007F06BE401EF0800F44EA060407F1070755
:104E0000F3D1C0E7154635F8024BBCE7FFF758FD74
:104E1000033222F0030555F8044B1C602846F8BD08
:104E2000FF280DD000F07000202815D00AD94028A6
:104E30000FD0502804D0302808D1084605F0A0B87B
:104E4000002070470028FBD01028F9D008B5FFF7E4
:104E500037FD084605F080B8084605F08DB800BF5C
:104E6000F8B50C4615460746002842D005F074F800
:104E7000286026780134FF2E32D039463046FFF7BD
:104E8000CFFF224601462B1D3046FFF769FF04463F
:104E90002378601CFF2B2B7528D00024102322467A
:104EA0002B7510F8011B01F07F039340090644EABB
:104EB000030402F10702F4D40444EC600024224607
:104EC000037801306B7510F8011B01F07F039340EC
:104ED0001C430B0602F10702F5D404442C61F8BD13
:104EE00068602378601CFF2B2B75D6D10023EB6004
:104EF000E4E7BDE700232DE9F04F00F0030497B08D
:104F0000012C894617460A931ED00ED3022C0AD1D3
:104F10003946484605F00AF8002800F0A580092027
:104F200017B0BDE8F08FFFF7CBFC0007F0D40123EA
:104F30000393002316AA42F82C9D009219460C22D6
:104F4000384604F093FA0FE010F0080400F0908067
:104F500016AA42F82C1D009244F0020419460C22B5
:104F60003846039404F082FA384604F0FBFF0590BB
:104F70000028CDD010AB1A46059938460693FFF7A6
:104F80006FFF394604469DF85400FFF749FF0023A0
:104F90000DF13C0B129019460F22CDF800B03846A7
:104FA00004F03EFA0F9B149A23F00103A24203F18E
:104FB000FF3675D90DF1340A0DF138089DF85550BA
:104FC00000212846FFF72CFF22465346014628467B
:104FD000FFF7C6FE9DF85540054600212046FFF725
:104FE0001FFF2A46434601462046FFF7B9FE9DF8BB
:104FF0005540054600212046FFF712FF2A4601468C
:105000005B462046FFF7ACFE04460020024614F83B
:10501000011B01F07F039340090640EA030002F1FF
:105020000702F4D4109B0D9A13449E4231D2039B85
:10503000DB0739D50025049500230D221946CDF84C
:10504000008038460A9C04F0EBF9059A0E9BC9F8DB
:105050002C20049AC9F82440C9F82850C9F83020F7
:10506000C9F8203006205BE7082017B0BDE8F08FB4
:1050700010AB009306930D22234621463846D9F8FB
:10508000205004F0CDF9109B9D4212D002230393CF
:105090004FE70E9A13449E4259D3149BA3428DD8D6
:1050A00000250124049507E1039B1B074CD500F064
:1050B00093F916AB43F82C9D0093214623460C220E
:1050C000384604F0D3F9D9F830300493002B3BD0A4
:1050D0000324D9F82850D9F82C10002DC0F20881EB
:1050E0000DF1340A0DF13808002316AA42F8289D64
:1050F0001946009238461A4604F0B8F900230122F6
:105100001946CDF800A038460D9504F0AFF90023FC
:105110000F221946CDF80080384604F081F90023AB
:105120000E9A049D02F001021543CDF80080384626
:1051300019460F220E9504F099F9022C00F0828096
:10514000072017B0BDE8F08F484600F0A5F90F9B87
:105150001A460493002B7AD100283FF4D9AE149B51
:10516000049A01380344002A3FF4D2AE002B77D0D2
:10517000039A12F00802099200F0F88047254E24A5
:105180005520432146224F264FF0520E4FF0000C7F
:1051900089F8005089F8014089F8020089F8031065
:1051A00089F8042089F8056089F806E089F807C0C5
:1051B0000022079708920025294600E023461C4656
:1051C00014F8010B00F07F028A40060645EA02054A
:1051D00001F10701F2D41F2905D8420603D50122A7
:1051E0008A40524215430026314613F8010F00F061
:1051F0007F028A40070646EA020601F10701F4D45D
:105200001F2905D8400603D501238B405B421E436E
:10521000002D5CD05EDD9DF85400FF2800F0A480D6
:1052200000F00703042B3FF67EAE01A252F823F0F4
:105230009B520008274F0008A15200089B5200080B
:10524000795200084846FFF771FC072068E6119B79
:105250001A440492002882D1049B002B3FF458AEDC
:10526000039B13F001037FF453AE039A12F0080579
:1052700040F09780022437E7EB005B42139A1299C3
:105280001A444346FFF76CFD0E9999B1B9F1000F2E
:1052900009D1002E77D0A3198DE7AB005B42EDE773
:1052A0006B005B42EAE70AAB00224846FFF7E2FBED
:1052B0000028EED00324079F039BDA0760D4039BEA
:1052C000190766D4012C3FF43FAF059905E7012388
:1052D0000893DEE7B9F1000F01D0099B5BB36B1CAB
:1052E000139AC3EB837352F82330002BD1D1E1E73B
:1052F000069A3846FFF7B4FD39469DF85400FFF78B
:105300008FFDAA0082F00302D243139E1290B3587D
:10531000164433B13246002352F8041F01330029EA
:10532000FAD10422C9F82830C9F82C00C9F8346031
:10533000C9F83020D4E6139F6B1CC3EB837357F876
:1053400023100A9A07EB83070F9221B9B2E757F8A7
:10535000041F0029AED039445B4600224846FFF7BF
:1053600089FB0028F3D094E7002387E799F807200A
:10537000012A0CBF59F8202C09F158020A9217E7AC
:105380000DF1380858E6089B079F002B7FF468AFA3
:10539000BEE5012C3FF48BAE002DBFF6A1AE00F0B0
:1053A00029F81D4602249FE600F0F8F87FE600BFCA
:1053B00008B58047FFF784FA00F0F0F8FFF780FAAD
:1053C0000D46044600F02AF9013501D0FFF74CFBE9
:1053D000204600F071F800BF08B5034B1868BFF312
:1053E0005B8FFFF7E5FF00BF2C00002008B580476A
:1053F000FFF7F2FF08B5034B1868BFF35B8FFFF7A9
:10540000F5FF00BF30000020024B1868BFF35B8F30
:10541000704700BF2C000020024B1868BFF35B8F61
:10542000704700BF30000020704700BF0020704769
:10543000814211D008B5406803782A2B0AD0496808
:105440000B782A2B08BF013105F016FBB0FA80F06B
:10545000400908BD002008BD012070470378472B94
:1054600001D00020704743784E2BFAD18378552B1A
:10547000F7D1C378432BF4D10379432BF1D143798E
:105480002B2BEED183792B2BEBD1C07901288CBF4C
:1054900000200120704700BF10B530B1044600F075
:1054A0007DF82046FFF7DAFF08B9FFF795FF54F8BB
:1054B000140CFFF77DFF00BF2DE9F04F85B00246C9
:1054C000FFF7CCFF68B152F8184C104652F8145C44
:1054D000966A176BD2F8349000F060F82046FFF718
:1054E00085FF104600F05AF8FFF784FF00F056F8E9
:1054F000FFF772FF00F052F8FFF782FB036893F8A2
:105500002720012A37D003F178024FF000084C46DB
:10551000C1460DF1100A203327F0030B01934AF81E
:10552000082DB1451BDA276807B1274453460022EE
:1055300039460198FFF79EFA10BB3B6804AA1B6925
:1055400042F8040D0093384601231149009FB847E3
:10555000002818BF804609F101095C44E1E7B8F171
:10556000000F0AD0042000F011F90A4B0A4A036028
:10557000074900F069F91A68C7E72846FFF718FFDE
:1055800000F0A2F900F04AF800F048F8FFF76CFAD2
:1055900008B700088CB70008114C000838B504465D
:1055A000FFF732FB22780368472AA4F1200105D0D7
:1055B000002B31D11C460160204638BD62784E2A4E
:1055C000F6D1A278552AF3D1E278432AF0D1227994
:1055D000432AEDD162792B2AEAD1A2792B2AE7D18D
:1055E000E279012AE4D854F80C2C002A11DB0132AC
:1055F00045688B4205F1FF3544F80C2C45601CBF13
:1056000044F8103C01602046646A03F001FF204624
:1056100038BDC2F10102EBE7FFF7DEFE08B5FFF788
:10562000EFFA0246006800283DD090F82030472B62
:1056300006D0002320301360BDE8084003F0EABE26
:1056400090F821304E2BF4D190F82230552BF0D128
:1056500090F82330432BECD190F82430432BE8D141
:1056600090F825302B2BE4D190F826302B2BE0D16D
:1056700090F82730012BDCD84369002B05DB013B78
:1056800008D05A1C0DD0436108BD0133FBD101691C
:105690001160F8E7036920301360BDE8084003F0AB
:1056A000B9BEFFF799FE08BDF0B41D4CA0F1080685
:1056B000616850F8087CC9B1F519A9421BD04A6845
:1056C0002AB3954204D326E09D42114604D21A46DD
:1056D00053680C1D002BF7D111685518AE4213D03A
:1056E00040F8043C23685E60F0BC704740F8041C3E
:1056F0006660F0BC70470B684A681F4440F8087C3D
:1057000040F8042C6660EFE70F441760ECE713469F
:1057100004340A46E0E7134604340A46DCE700BFD7
:10572000FC1A002030B4184C00F108016368082905
:1057300038BF082113B307311A6821F007019142DD
:1057400004D81DE00268914205D903465868002834
:10575000F8D130BC70470433521A072A0AD944687A
:1057600045186C601C68425021601D6004F10800FF
:1057700030BC7047426804461A60F7E71846E8E70D
:105780001846231DE8E700BFFC1A002038B500F1D9
:105790008005284604F026FC044638B1802200210A
:1057A000204604F047FF04F1800038BD2846FFF78B
:1057B000B9FF04460028F1D1FFF70EFE064A8038F3
:1057C0009368984205D9D2681344984201D2FFF7F2
:1057D0006BBF04F00FBC00BFFC1A002038B54FF4BB
:1057E0001E65074C2846E56004F0FCFBA06020B174
:1057F000002360600560436038BDE060606038BDD4
:10580000FC1A0020012810B51AD8BFF35B8FA1F154
:10581000280353E8002F013A43E800200028F8D17C
:10582000BFF35B8F5AB951F81C3C01F158040BB11E
:10583000204698472046BDE81040FFF7BFBF10BD87
:1058400051F8140CFFF7B4FD2DE9F041044617465A
:105850008846FFF7D9F901264368A4F15805334477
:10586000436044F8747C44F8806C44F8788CFFF70B
:10587000D3FD44F8700CFFF7C7FD472143222B23CB
:105880004FF04E0E5527002604F8581C0D4944F8D9
:105890006C0C04F857EC44F8501C04F8552C04F830
:1058A000542C04F8533C04F8523C04F8567C04F899
:1058B000516C284604F04CF92846FFF76FFEFFF7BD
:1058C0008BFD00BF0558000810B5FFF79DF9426831
:1058D00004680132426064B194F82020472A0AD05B
:1058E000002202602034204604F056F92046FFF7DB
:1058F00055FEFFF771FD94F821204E2AF0D194F85F
:105900002220552AECD194F82320432AE8D194F898
:105910002420432AE4D194F825202B2AE0D194F8BE
:1059200026202B2ADCD194F82720012AD8D86269B6
:1059300052426261D6E700BF30B5214A21F00043F0
:10594000934287B01BDD1F4A934205DD02460B469A
:1059500002F0A8FB07B030BD02AA00F079FA00F00F
:10596000030001281ED0022811D0DDE9042300B372
:10597000DDE9020100F000FF01F10041EAE7002447
:1059800000220023009401F063FC07B030BD012425
:10599000DDE90423DDE90201009401F059FC01F185
:1059A0000041D7E7DDE90423DDE9020100F0E4FE70
:1059B000D0E70124DDE90201009401F049FCC9E7C8
:1059C000FB21E93FFFFFEF7F2DE9F04120F000458B
:1059D000B5F1A14F0446064608DBB5F1FF4F6FDC79
:1059E000002840F3A0806F48BDE8F0816E4B9D42D7
:1059F00077DCB5F1445F68DB4FF0FF372146204686
:105A000003F03AF90146804603F036F90546674946
:105A100003F032F9664903F027F8294603F02CF920
:105A2000644903F021F8294603F026F9624903F09E
:105A30001BF8294603F020F9604903F015F82946C0
:105A400003F01AF95E4903F00FF8414603F014F928
:105A50005C498046284603F00FF95B4903F002F8E1
:105A6000294603F009F9594902F0FCFF294603F0E1
:105A700003F9574902F0F6FF294603F0FDF85549AE
:105A800002F0F0FF294603F0F7F87B1C0146404680
:105A90004CD002F0E9FF214603F0EEF84E4B4F4D9B
:105AA00053F8271002F0DEFF214602F0DBFF01462B
:105AB00055F8270002F0D6FF002E30DBBDE8F0815C
:105AC000014602F0D1FFBDE8F081454902F0CCFF6C
:105AD0004FF07E5103F08CFA00288DD02046BDE8AF
